{
  "contractName": "CompoundModule",
  "abi": [
    {
      "inputs": [],
      "name": "CDAI_ADDRESS",
      "outputs": [
        {
          "internalType": "address payable",
          "name": "",
          "type": "address"
        }
      ],
      "stateMutability": "view",
      "type": "function",
      "constant": true
    },
    {
      "inputs": [],
      "name": "CETH_ADDRESS",
      "outputs": [
        {
          "internalType": "address payable",
          "name": "",
          "type": "address"
        }
      ],
      "stateMutability": "view",
      "type": "function",
      "constant": true
    },
    {
      "inputs": [],
      "name": "COLLATERAL_FACTOR",
      "outputs": [
        {
          "internalType": "uint256",
          "name": "",
          "type": "uint256"
        }
      ],
      "stateMutability": "view",
      "type": "function",
      "constant": true
    },
    {
      "inputs": [],
      "name": "DAI_ADDRESS",
      "outputs": [
        {
          "internalType": "address",
          "name": "",
          "type": "address"
        }
      ],
      "stateMutability": "view",
      "type": "function",
      "constant": true
    },
    {
      "inputs": [],
      "name": "DENOMINATOR",
      "outputs": [
        {
          "internalType": "uint256",
          "name": "",
          "type": "uint256"
        }
      ],
      "stateMutability": "view",
      "type": "function",
      "constant": true
    },
    {
      "inputs": [],
      "name": "ORACLE_ADDRESS",
      "outputs": [
        {
          "internalType": "address",
          "name": "",
          "type": "address"
        }
      ],
      "stateMutability": "view",
      "type": "function",
      "constant": true
    },
    {
      "inputs": [],
      "name": "POWER",
      "outputs": [
        {
          "internalType": "uint256",
          "name": "",
          "type": "uint256"
        }
      ],
      "stateMutability": "view",
      "type": "function",
      "constant": true
    },
    {
      "inputs": [],
      "name": "WETH_ADDRESS",
      "outputs": [
        {
          "internalType": "address",
          "name": "",
          "type": "address"
        }
      ],
      "stateMutability": "view",
      "type": "function",
      "constant": true
    },
    {
      "inputs": [
        {
          "internalType": "address",
          "name": "",
          "type": "address"
        }
      ],
      "name": "borrowingBalanceOf",
      "outputs": [
        {
          "internalType": "uint256",
          "name": "",
          "type": "uint256"
        }
      ],
      "stateMutability": "view",
      "type": "function",
      "constant": true
    },
    {
      "inputs": [],
      "name": "cDaiToken",
      "outputs": [
        {
          "internalType": "contract ICErc20",
          "name": "",
          "type": "address"
        }
      ],
      "stateMutability": "view",
      "type": "function",
      "constant": true
    },
    {
      "inputs": [],
      "name": "cEthToken",
      "outputs": [
        {
          "internalType": "contract ICEth",
          "name": "",
          "type": "address"
        }
      ],
      "stateMutability": "view",
      "type": "function",
      "constant": true
    },
    {
      "inputs": [
        {
          "internalType": "address",
          "name": "",
          "type": "address"
        }
      ],
      "name": "collateralBalanceOf",
      "outputs": [
        {
          "internalType": "uint256",
          "name": "unused",
          "type": "uint256"
        },
        {
          "internalType": "uint256",
          "name": "used",
          "type": "uint256"
        }
      ],
      "stateMutability": "view",
      "type": "function",
      "constant": true
    },
    {
      "inputs": [
        {
          "internalType": "uint256",
          "name": "",
          "type": "uint256"
        }
      ],
      "name": "currentLenders",
      "outputs": [
        {
          "internalType": "address",
          "name": "",
          "type": "address"
        }
      ],
      "stateMutability": "view",
      "type": "function",
      "constant": true
    },
    {
      "inputs": [],
      "name": "daiToken",
      "outputs": [
        {
          "internalType": "contract IERC20",
          "name": "",
          "type": "address"
        }
      ],
      "stateMutability": "view",
      "type": "function",
      "constant": true
    },
    {
      "inputs": [
        {
          "internalType": "address",
          "name": "",
          "type": "address"
        }
      ],
      "name": "lenderToIndex",
      "outputs": [
        {
          "internalType": "uint256",
          "name": "",
          "type": "uint256"
        }
      ],
      "stateMutability": "view",
      "type": "function",
      "constant": true
    },
    {
      "inputs": [
        {
          "internalType": "address",
          "name": "",
          "type": "address"
        }
      ],
      "name": "lendingBalanceOf",
      "outputs": [
        {
          "internalType": "uint256",
          "name": "unused",
          "type": "uint256"
        },
        {
          "internalType": "uint256",
          "name": "used",
          "type": "uint256"
        }
      ],
      "stateMutability": "view",
      "type": "function",
      "constant": true
    },
    {
      "inputs": [],
      "name": "oracle",
      "outputs": [
        {
          "internalType": "contract IOracle",
          "name": "",
          "type": "address"
        }
      ],
      "stateMutability": "view",
      "type": "function",
      "constant": true
    },
    {
      "stateMutability": "payable",
      "type": "receive",
      "payable": true
    },
    {
      "inputs": [],
      "name": "lend",
      "outputs": [],
      "stateMutability": "payable",
      "type": "function",
      "payable": true
    },
    {
      "inputs": [
        {
          "internalType": "uint256",
          "name": "_amount",
          "type": "uint256"
        }
      ],
      "name": "borrow",
      "outputs": [],
      "stateMutability": "nonpayable",
      "type": "function"
    },
    {
      "inputs": [],
      "name": "payBack",
      "outputs": [],
      "stateMutability": "payable",
      "type": "function",
      "payable": true
    },
    {
      "inputs": [
        {
          "internalType": "uint256",
          "name": "_amount",
          "type": "uint256"
        }
      ],
      "name": "cashOut",
      "outputs": [],
      "stateMutability": "nonpayable",
      "type": "function"
    },
    {
      "inputs": [
        {
          "internalType": "uint256",
          "name": "_amount",
          "type": "uint256"
        }
      ],
      "name": "provideCollateral",
      "outputs": [],
      "stateMutability": "nonpayable",
      "type": "function"
    },
    {
      "inputs": [
        {
          "internalType": "uint256",
          "name": "_amount",
          "type": "uint256"
        }
      ],
      "name": "redeemCollateral",
      "outputs": [],
      "stateMutability": "nonpayable",
      "type": "function"
    },
    {
      "inputs": [
        {
          "internalType": "address",
          "name": "_borrower",
          "type": "address"
        }
      ],
      "name": "liquidate",
      "outputs": [],
      "stateMutability": "payable",
      "type": "function",
      "payable": true
    }
  ],
  "bytecode": "0x6080604052734ddc2d193948926d02f9b1fe9e1daa0718270ed5600560006101000a81548173ffffffffffffffffffffffffffffffffffffffff021916908373ffffffffffffffffffffffffffffffffffffffff160217905550735d3a536e4d6dbd6114cc1ead35777bab948e3643600660006101000a81548173ffffffffffffffffffffffffffffffffffffffff021916908373ffffffffffffffffffffffffffffffffffffffff160217905550736b175474e89094c44da98b954eedeac495271d0f600760006101000a81548173ffffffffffffffffffffffffffffffffffffffff021916908373ffffffffffffffffffffffffffffffffffffffff160217905550735d3a536e4d6dbd6114cc1ead35777bab948e3643600860006101000a81548173ffffffffffffffffffffffffffffffffffffffff021916908373ffffffffffffffffffffffffffffffffffffffff16021790555034801561016457600080fd5b50613545806101746000396000f3fe60806040526004361061016c576000357c010000000000000000000000000000000000000000000000000000000090048063918f8674116100d3578063c964a2f21161008c578063c964a2f214610660578063d5038527146106cc578063e1a607fa14610731578063e41294f3146107ac578063f0c3c06b146107d7578063fcfc430c1461081257610173565b8063918f86741461050757806397dffc6114610532578063ba266b131461053c578063bd37b77514610593578063be22f546146105ce578063c5ebeaec1461062557610173565b80632f865568116101255780632f8655681461031e5780634ab45d33146103625780635af6f411146103b95780635c7b79f51461041e5780637cd3d2cd146104595780637dc0d1d0146104b057610173565b8063019f64cc14610178578063040141e5146101825780630531b2ad146101d957806317f49e05146102305780632787d0321461025b5780632a4c0a1a146102c757610173565b3661017357005b600080fd5b610180610869565b005b34801561018e57600080fd5b506101976109b9565b604051808273ffffffffffffffffffffffffffffffffffffffff1673ffffffffffffffffffffffffffffffffffffffff16815260200191505060405180910390f35b3480156101e557600080fd5b506101ee6109d1565b604051808273ffffffffffffffffffffffffffffffffffffffff1673ffffffffffffffffffffffffffffffffffffffff16815260200191505060405180910390f35b34801561023c57600080fd5b506102456109e9565b6040518082815260200191505060405180910390f35b34801561026757600080fd5b506102aa6004803603602081101561027e57600080fd5b81019080803573ffffffffffffffffffffffffffffffffffffffff1690602001909291905050506109ef565b604051808381526020018281526020019250505060405180910390f35b3480156102d357600080fd5b506102dc610a13565b604051808273ffffffffffffffffffffffffffffffffffffffff1673ffffffffffffffffffffffffffffffffffffffff16815260200191505060405180910390f35b6103606004803603602081101561033457600080fd5b81019080803573ffffffffffffffffffffffffffffffffffffffff169060200190929190505050610a2b565b005b34801561036e57600080fd5b50610377610a2e565b604051808273ffffffffffffffffffffffffffffffffffffffff1673ffffffffffffffffffffffffffffffffffffffff16815260200191505060405180910390f35b3480156103c557600080fd5b50610408600480360360208110156103dc57600080fd5b81019080803573ffffffffffffffffffffffffffffffffffffffff169060200190929190505050610a46565b6040518082815260200191505060405180910390f35b34801561042a57600080fd5b506104576004803603602081101561044157600080fd5b8101908080359060200190929190505050610a5e565b005b34801561046557600080fd5b5061046e610a6b565b604051808273ffffffffffffffffffffffffffffffffffffffff1673ffffffffffffffffffffffffffffffffffffffff16815260200191505060405180910390f35b3480156104bc57600080fd5b506104c5610a91565b604051808273ffffffffffffffffffffffffffffffffffffffff1673ffffffffffffffffffffffffffffffffffffffff16815260200191505060405180910390f35b34801561051357600080fd5b5061051c610ab7565b6040518082815260200191505060405180910390f35b61053a610abd565b005b34801561054857600080fd5b50610551610cf6565b604051808273ffffffffffffffffffffffffffffffffffffffff1673ffffffffffffffffffffffffffffffffffffffff16815260200191505060405180910390f35b34801561059f57600080fd5b506105cc600480360360208110156105b657600080fd5b8101908080359060200190929190505050610d1c565b005b3480156105da57600080fd5b506105e3610d29565b604051808273ffffffffffffffffffffffffffffffffffffffff1673ffffffffffffffffffffffffffffffffffffffff16815260200191505060405180910390f35b34801561063157600080fd5b5061065e6004803603602081101561064857600080fd5b8101908080359060200190929190505050610d4f565b005b34801561066c57600080fd5b506106af6004803603602081101561068357600080fd5b81019080803573ffffffffffffffffffffffffffffffffffffffff169060200190929190505050611401565b604051808381526020018281526020019250505060405180910390f35b3480156106d857600080fd5b5061071b600480360360208110156106ef57600080fd5b81019080803573ffffffffffffffffffffffffffffffffffffffff169060200190929190505050611425565b6040518082815260200191505060405180910390f35b34801561073d57600080fd5b5061076a6004803603602081101561075457600080fd5b810190808035906020019092919050505061143d565b604051808273ffffffffffffffffffffffffffffffffffffffff1673ffffffffffffffffffffffffffffffffffffffff16815260200191505060405180910390f35b3480156107b857600080fd5b506107c1611479565b6040518082815260200191505060405180910390f35b3480156107e357600080fd5b50610810600480360360208110156107fa57600080fd5b810190808035906020019092919050505061147e565b005b34801561081e57600080fd5b5061082761186e565b604051808273ffffffffffffffffffffffffffffffffffffffff1673ffffffffffffffffffffffffffffffffffffffff16815260200191505060405180910390f35b6000610954600560009054906101000a900473ffffffffffffffffffffffffffffffffffffffff1673ffffffffffffffffffffffffffffffffffffffff1663bd6d894d6040518163ffffffff167c0100000000000000000000000000000000000000000000000000000000028152600401602060405180830381600087803b1580156108f457600080fd5b505af1158015610908573d6000803e3d6000fd5b505050506040513d602081101561091e57600080fd5b8101908080519060200190929190505050610946601c600a0a3461188690919063ffffffff16565b61190c90919063ffffffff16565b905034600260003373ffffffffffffffffffffffffffffffffffffffff1673ffffffffffffffffffffffffffffffffffffffff168152602001908152602001600020600082825403925050819055506109ad8133611956565b6109b634611c48565b50565b73c02aaa39b223fe8d0a0e5c4f27ead9083c756cc281565b735d3a536e4d6dbd6114cc1ead35777bab948e364381565b61271081565b60006020528060005260406000206000915090508060000154908060010154905082565b736b175474e89094c44da98b954eedeac495271d0f81565b50565b734ddc2d193948926d02f9b1fe9e1daa0718270ed581565b60026020528060005260406000206000915090505481565b610a683382611cea565b50565b600560009054906101000a900473ffffffffffffffffffffffffffffffffffffffff1681565b600860009054906101000a900473ffffffffffffffffffffffffffffffffffffffff1681565b61271081565b610ac634611c48565b60008060003373ffffffffffffffffffffffffffffffffffffffff1673ffffffffffffffffffffffffffffffffffffffff168152602001908152602001600020600001541415610bbd57600480549050600360003373ffffffffffffffffffffffffffffffffffffffff1673ffffffffffffffffffffffffffffffffffffffff168152602001908152602001600020819055506004339080600181540180825580915050600190039060005260206000200160009091909190916101000a81548173ffffffffffffffffffffffffffffffffffffffff021916908373ffffffffffffffffffffffffffffffffffffffff1602179055505b610ca6600560009054906101000a900473ffffffffffffffffffffffffffffffffffffffff1673ffffffffffffffffffffffffffffffffffffffff1663bd6d894d6040518163ffffffff167c0100000000000000000000000000000000000000000000000000000000028152600401602060405180830381600087803b158015610c4657600080fd5b505af1158015610c5a573d6000803e3d6000fd5b505050506040513d6020811015610c7057600080fd5b8101908080519060200190929190505050610c98601c600a0a3461188690919063ffffffff16565b61190c90919063ffffffff16565b6000803373ffffffffffffffffffffffffffffffffffffffff1673ffffffffffffffffffffffffffffffffffffffff16815260200190815260200160002060000160008282540192505081905550565b600660009054906101000a900473ffffffffffffffffffffffffffffffffffffffff1681565b610d263382612468565b50565b600760009054906101000a900473ffffffffffffffffffffffffffffffffffffffff1681565b6000600860009054906101000a900473ffffffffffffffffffffffffffffffffffffffff1673ffffffffffffffffffffffffffffffffffffffff16638c86f1e473c02aaa39b223fe8d0a0e5c4f27ead9083c756cc284736b175474e89094c44da98b954eedeac495271d0f6040518463ffffffff167c0100000000000000000000000000000000000000000000000000000000028152600401808473ffffffffffffffffffffffffffffffffffffffff1673ffffffffffffffffffffffffffffffffffffffff1681526020018381526020018273ffffffffffffffffffffffffffffffffffffffff1673ffffffffffffffffffffffffffffffffffffffff168152602001935050505060206040518083038186803b158015610e7057600080fd5b505afa158015610e84573d6000803e3d6000fd5b505050506040513d6020811015610e9a57600080fd5b810190808051906020019092919050505090506000610ed8612710610eca6127108561188690919063ffffffff16565b61190c90919063ffffffff16565b90506000610fc5600660009054906101000a900473ffffffffffffffffffffffffffffffffffffffff1673ffffffffffffffffffffffffffffffffffffffff1663bd6d894d6040518163ffffffff167c0100000000000000000000000000000000000000000000000000000000028152600401602060405180830381600087803b158015610f6557600080fd5b505af1158015610f79573d6000803e3d6000fd5b505050506040513d6020811015610f8f57600080fd5b8101908080519060200190929190505050610fb7601c600a0a8561188690919063ffffffff16565b61190c90919063ffffffff16565b9050600160003373ffffffffffffffffffffffffffffffffffffffff1673ffffffffffffffffffffffffffffffffffffffff1681526020019081526020016000206000015482111561107f576040517f08c379a00000000000000000000000000000000000000000000000000000000081526004018080602001828103825260168152602001807f4e6f7420656e6f75676820636f6c6c61746572616c2e0000000000000000000081525060200191505060405180910390fd5b600061116a600560009054906101000a900473ffffffffffffffffffffffffffffffffffffffff1673ffffffffffffffffffffffffffffffffffffffff1663bd6d894d6040518163ffffffff167c0100000000000000000000000000000000000000000000000000000000028152600401602060405180830381600087803b15801561110a57600080fd5b505af115801561111e573d6000803e3d6000fd5b505050506040513d602081101561113457600080fd5b810190808051906020019092919050505061115c601c600a0a8861188690919063ffffffff16565b61190c90919063ffffffff16565b9050600560009054906101000a900473ffffffffffffffffffffffffffffffffffffffff1673ffffffffffffffffffffffffffffffffffffffff166370a08231306040518263ffffffff167c0100000000000000000000000000000000000000000000000000000000028152600401808273ffffffffffffffffffffffffffffffffffffffff1673ffffffffffffffffffffffffffffffffffffffff168152602001915050602060405180830381600087803b15801561122957600080fd5b505af115801561123d573d6000803e3d6000fd5b505050506040513d602081101561125357600080fd5b81019080805190602001909291905050508111156112bc576040517f08c379a00000000000000000000000000000000000000000000000000000000081526004018080602001828103825260338152602001806134256033913960400191505060405180910390fd5b6112c6813361285e565b81600160003373ffffffffffffffffffffffffffffffffffffffff1673ffffffffffffffffffffffffffffffffffffffff1681526020019081526020016000206000016000828254039250508190555082600160003373ffffffffffffffffffffffffffffffffffffffff1673ffffffffffffffffffffffffffffffffffffffff1681526020019081526020016000206001016000828254019250508190555084600260003373ffffffffffffffffffffffffffffffffffffffff1673ffffffffffffffffffffffffffffffffffffffff168152602001908152602001600020600082825401925050819055503373ffffffffffffffffffffffffffffffffffffffff166108fc869081150290604051600060405180830381858888f193505050501580156113f9573d6000803e3d6000fd5b505050505050565b60016020528060005260406000206000915090508060000154908060010154905082565b60036020528060005260406000206000915090505481565b6004818154811061144a57fe5b906000526020600020016000915054906101000a900473ffffffffffffffffffffffffffffffffffffffff1681565b601c81565b600081116114f4576040517f08c379a00000000000000000000000000000000000000000000000000000000081526004018080602001828103825260128152602001807f416d6f756e742063616e6e6f742062652030000000000000000000000000000081525060200191505060405180910390fd5b600760009054906101000a900473ffffffffffffffffffffffffffffffffffffffff1673ffffffffffffffffffffffffffffffffffffffff1663095ea7b330836040518363ffffffff167c0100000000000000000000000000000000000000000000000000000000028152600401808373ffffffffffffffffffffffffffffffffffffffff1673ffffffffffffffffffffffffffffffffffffffff16815260200182815260200192505050602060405180830381600087803b1580156115b957600080fd5b505af11580156115cd573d6000803e3d6000fd5b505050506040513d60208110156115e357600080fd5b810190808051906020019092919050505050600760009054906101000a900473ffffffffffffffffffffffffffffffffffffffff1673ffffffffffffffffffffffffffffffffffffffff166323b872dd3330846040518463ffffffff167c0100000000000000000000000000000000000000000000000000000000028152600401808473ffffffffffffffffffffffffffffffffffffffff1673ffffffffffffffffffffffffffffffffffffffff1681526020018373ffffffffffffffffffffffffffffffffffffffff1673ffffffffffffffffffffffffffffffffffffffff1681526020018281526020019350505050602060405180830381600087803b1580156116ee57600080fd5b505af1158015611702573d6000803e3d6000fd5b505050506040513d602081101561171857600080fd5b81019080805190602001909291905050505061173381612b50565b61181c600660009054906101000a900473ffffffffffffffffffffffffffffffffffffffff1673ffffffffffffffffffffffffffffffffffffffff1663bd6d894d6040518163ffffffff167c0100000000000000000000000000000000000000000000000000000000028152600401602060405180830381600087803b1580156117bc57600080fd5b505af11580156117d0573d6000803e3d6000fd5b505050506040513d60208110156117e657600080fd5b810190808051906020019092919050505061180e601c600a0a8461188690919063ffffffff16565b61190c90919063ffffffff16565b600160003373ffffffffffffffffffffffffffffffffffffffff1673ffffffffffffffffffffffffffffffffffffffff1681526020019081526020016000206000016000828254019250508190555050565b735d3a536e4d6dbd6114cc1ead35777bab948e364381565b6000808314156118995760009050611906565b60008284029050828482816118aa57fe5b0414611901576040517f08c379a00000000000000000000000000000000000000000000000000000000081526004018080602001828103825260218152602001806134866021913960400191505060405180910390fd5b809150505b92915050565b600061194e83836040518060400160405280601a81526020017f536166654d6174683a206469766973696f6e206279207a65726f000000000000815250612da9565b905092915050565b600082905060005b600082118015611972575060048054905081105b15611bcc5760006004828154811061198657fe5b9060005260206000200160009054906101000a900473ffffffffffffffffffffffffffffffffffffffff1690508373ffffffffffffffffffffffffffffffffffffffff168173ffffffffffffffffffffffffffffffffffffffff1614158015611a1c5750600073ffffffffffffffffffffffffffffffffffffffff168173ffffffffffffffffffffffffffffffffffffffff1614155b15611bbe5760008060008373ffffffffffffffffffffffffffffffffffffffff1673ffffffffffffffffffffffffffffffffffffffff1681526020019081526020016000206001015490506000811115611bbc576000611a7c8286612e6f565b9050611b67601c600a0a611b59600560009054906101000a900473ffffffffffffffffffffffffffffffffffffffff1673ffffffffffffffffffffffffffffffffffffffff1663bd6d894d6040518163ffffffff167c0100000000000000000000000000000000000000000000000000000000028152600401602060405180830381600087803b158015611b0f57600080fd5b505af1158015611b23573d6000803e3d6000fd5b505050506040513d6020811015611b3957600080fd5b81019080805190602001909291905050508461188690919063ffffffff16565b61190c90919063ffffffff16565b6000808573ffffffffffffffffffffffffffffffffffffffff1673ffffffffffffffffffffffffffffffffffffffff168152602001908152602001600020600101600082825403925050819055508085039450505b505b81806001019250505061195e565b60008214611c42576040517f08c379a000000000000000000000000000000000000000000000000000000000815260040180806020018281038252601e8152602001807f4e6f7420656e6f756768206c697175696469747920746f20756e7573652e000081525060200191505060405180910390fd5b50505050565b600560009054906101000a900473ffffffffffffffffffffffffffffffffffffffff1673ffffffffffffffffffffffffffffffffffffffff16631249c58b826040518263ffffffff167c01000000000000000000000000000000000000000000000000000000000281526004016000604051808303818588803b158015611cce57600080fd5b505af1158015611ce2573d6000803e3d6000fd5b505050505050565b6000808373ffffffffffffffffffffffffffffffffffffffff1673ffffffffffffffffffffffffffffffffffffffff168152602001908152602001600020600001548111611d4157611d3c8282612e88565b612353565b6000611e6d601c600a0a611e5f600560009054906101000a900473ffffffffffffffffffffffffffffffffffffffff1673ffffffffffffffffffffffffffffffffffffffff1663bd6d894d6040518163ffffffff167c0100000000000000000000000000000000000000000000000000000000028152600401602060405180830381600087803b158015611dd457600080fd5b505af1158015611de8573d6000803e3d6000fd5b505050506040513d6020811015611dfe57600080fd5b81019080805190602001909291905050506000808873ffffffffffffffffffffffffffffffffffffffff1673ffffffffffffffffffffffffffffffffffffffff1681526020019081526020016000206000015461188690919063ffffffff16565b61190c90919063ffffffff16565b9050611e798382612e88565b6000611f64600560009054906101000a900473ffffffffffffffffffffffffffffffffffffffff1673ffffffffffffffffffffffffffffffffffffffff1663bd6d894d6040518163ffffffff167c0100000000000000000000000000000000000000000000000000000000028152600401602060405180830381600087803b158015611f0457600080fd5b505af1158015611f18573d6000803e3d6000fd5b505050506040513d6020811015611f2e57600080fd5b8101908080519060200190929190505050611f56601c600a0a8661188690919063ffffffff16565b61190c90919063ffffffff16565b6000808673ffffffffffffffffffffffffffffffffffffffff1673ffffffffffffffffffffffffffffffffffffffff168152602001908152602001600020600001540390506000612094601c600a0a612086600560009054906101000a900473ffffffffffffffffffffffffffffffffffffffff1673ffffffffffffffffffffffffffffffffffffffff1663bd6d894d6040518163ffffffff167c0100000000000000000000000000000000000000000000000000000000028152600401602060405180830381600087803b15801561203c57600080fd5b505af1158015612050573d6000803e3d6000fd5b505050506040513d602081101561206657600080fd5b81019080805190602001909291905050508561188690919063ffffffff16565b61190c90919063ffffffff16565b905081600560009054906101000a900473ffffffffffffffffffffffffffffffffffffffff1673ffffffffffffffffffffffffffffffffffffffff166370a08231306040518263ffffffff167c0100000000000000000000000000000000000000000000000000000000028152600401808273ffffffffffffffffffffffffffffffffffffffff1673ffffffffffffffffffffffffffffffffffffffff168152602001915050602060405180830381600087803b15801561215457600080fd5b505af1158015612168573d6000803e3d6000fd5b505050506040513d602081101561217e57600080fd5b8101908080519060200190929190505050111561223a5761219f828661285e565b806000808773ffffffffffffffffffffffffffffffffffffffff1673ffffffffffffffffffffffffffffffffffffffff168152602001908152602001600020600101600082825403925050819055508473ffffffffffffffffffffffffffffffffffffffff166108fc829081150290604051600060405180830381858888f19350505050158015612234573d6000803e3d6000fd5b5061234f565b600560009054906101000a900473ffffffffffffffffffffffffffffffffffffffff1673ffffffffffffffffffffffffffffffffffffffff1663c5ebeaec856040518263ffffffff167c010000000000000000000000000000000000000000000000000000000002815260040180828152602001915050602060405180830381600087803b1580156122cb57600080fd5b505af11580156122df573d6000803e3d6000fd5b505050506040513d60208110156122f557600080fd5b8101908080519060200190929190505050508473ffffffffffffffffffffffffffffffffffffffff166108fc859081150290604051600060405180830381858888f1935050505015801561234d573d6000803e3d6000fd5b505b5050505b60008060008473ffffffffffffffffffffffffffffffffffffffff1673ffffffffffffffffffffffffffffffffffffffff168152602001908152602001600020600001541480156123e5575060008060008473ffffffffffffffffffffffffffffffffffffffff1673ffffffffffffffffffffffffffffffffffffffff16815260200190815260200160002060010154145b15612464576004600360008473ffffffffffffffffffffffffffffffffffffffff1673ffffffffffffffffffffffffffffffffffffffff168152602001908152602001600020548154811061243657fe5b9060005260206000200160006101000a81549073ffffffffffffffffffffffffffffffffffffffff02191690555b5050565b6000600260008473ffffffffffffffffffffffffffffffffffffffff1673ffffffffffffffffffffffffffffffffffffffff1681526020019081526020016000205414612500576040517f08c379a00000000000000000000000000000000000000000000000000000000081526004018080602001828103825260358152602001806134db6035913960400191505060405180910390fd5b60006125eb600660009054906101000a900473ffffffffffffffffffffffffffffffffffffffff1673ffffffffffffffffffffffffffffffffffffffff1663bd6d894d6040518163ffffffff167c0100000000000000000000000000000000000000000000000000000000028152600401602060405180830381600087803b15801561258b57600080fd5b505af115801561259f573d6000803e3d6000fd5b505050506040513d60208110156125b557600080fd5b81019080805190602001909291905050506125dd601c600a0a8561188690919063ffffffff16565b61190c90919063ffffffff16565b9050600160003373ffffffffffffffffffffffffffffffffffffffff1673ffffffffffffffffffffffffffffffffffffffff16815260200190815260200160002060000154811115612688576040517f08c379a000000000000000000000000000000000000000000000000000000000815260040180806020018281038252602e815260200180613458602e913960400191505060405180910390fd5b60006126958360006130b6565b14612708576040517f08c379a000000000000000000000000000000000000000000000000000000000815260040180806020018281038252601f8152602001807f52656465656d2063444149206f6e20436f6d706f756e64206661696c65642e0081525060200191505060405180910390fd5b80600160003373ffffffffffffffffffffffffffffffffffffffff1673ffffffffffffffffffffffffffffffffffffffff16815260200190815260200160002060000160008282540392505081905550600760009054906101000a900473ffffffffffffffffffffffffffffffffffffffff1673ffffffffffffffffffffffffffffffffffffffff1663a9059cbb84846040518363ffffffff167c0100000000000000000000000000000000000000000000000000000000028152600401808373ffffffffffffffffffffffffffffffffffffffff1673ffffffffffffffffffffffffffffffffffffffff16815260200182815260200192505050602060405180830381600087803b15801561281d57600080fd5b505af1158015612831573d6000803e3d6000fd5b505050506040513d602081101561284757600080fd5b810190808051906020019092919050505050505050565b600082905060005b60008211801561287a575060048054905081105b15612ad45760006004828154811061288e57fe5b9060005260206000200160009054906101000a900473ffffffffffffffffffffffffffffffffffffffff1690508373ffffffffffffffffffffffffffffffffffffffff168173ffffffffffffffffffffffffffffffffffffffff16141580156129245750600073ffffffffffffffffffffffffffffffffffffffff168173ffffffffffffffffffffffffffffffffffffffff1614155b15612ac65760008060008373ffffffffffffffffffffffffffffffffffffffff1673ffffffffffffffffffffffffffffffffffffffff1681526020019081526020016000206000015490506000811115612ac45760006129848286612e6f565b9050612a6f601c600a0a612a61600560009054906101000a900473ffffffffffffffffffffffffffffffffffffffff1673ffffffffffffffffffffffffffffffffffffffff1663bd6d894d6040518163ffffffff167c0100000000000000000000000000000000000000000000000000000000028152600401602060405180830381600087803b158015612a1757600080fd5b505af1158015612a2b573d6000803e3d6000fd5b505050506040513d6020811015612a4157600080fd5b81019080805190602001909291905050508461188690919063ffffffff16565b61190c90919063ffffffff16565b6000808573ffffffffffffffffffffffffffffffffffffffff1673ffffffffffffffffffffffffffffffffffffffff168152602001908152602001600020600101600082825401925050819055508085039450505b505b818060010192505050612866565b60008214612b4a576040517f08c379a000000000000000000000000000000000000000000000000000000000815260040180806020018281038252601c8152602001807f4e6f7420656e6f756768206c697175696469747920746f207573652e0000000081525060200191505060405180910390fd5b50505050565b600760009054906101000a900473ffffffffffffffffffffffffffffffffffffffff1673ffffffffffffffffffffffffffffffffffffffff1663095ea7b3735d3a536e4d6dbd6114cc1ead35777bab948e3643836040518363ffffffff167c0100000000000000000000000000000000000000000000000000000000028152600401808373ffffffffffffffffffffffffffffffffffffffff1673ffffffffffffffffffffffffffffffffffffffff16815260200182815260200192505050602060405180830381600087803b158015612c2957600080fd5b505af1158015612c3d573d6000803e3d6000fd5b505050506040513d6020811015612c5357600080fd5b8101908080519060200190929190505050506000600660009054906101000a900473ffffffffffffffffffffffffffffffffffffffff1673ffffffffffffffffffffffffffffffffffffffff1663a0712d68836040518263ffffffff167c010000000000000000000000000000000000000000000000000000000002815260040180828152602001915050602060405180830381600087803b158015612cf857600080fd5b505af1158015612d0c573d6000803e3d6000fd5b505050506040513d6020811015612d2257600080fd5b810190808051906020019092919050505014612da6576040517f08c379a00000000000000000000000000000000000000000000000000000000081526004018080602001828103825260148152602001807f63444149206d696e74696e67206661696c65642e00000000000000000000000081525060200191505060405180910390fd5b50565b60008083118290612e55576040517f08c379a00000000000000000000000000000000000000000000000000000000081526004018080602001828103825283818151815260200191508051906020019080838360005b83811015612e1a578082015181840152602081019050612dff565b50505050905090810190601f168015612e475780820380516001836020036101000a031916815260200191505b509250505060405180910390fd5b506000838581612e6157fe5b049050809150509392505050565b6000818310612e7e5781612e80565b825b905092915050565b6000612f73600560009054906101000a900473ffffffffffffffffffffffffffffffffffffffff1673ffffffffffffffffffffffffffffffffffffffff1663bd6d894d6040518163ffffffff167c0100000000000000000000000000000000000000000000000000000000028152600401602060405180830381600087803b158015612f1357600080fd5b505af1158015612f27573d6000803e3d6000fd5b505050506040513d6020811015612f3d57600080fd5b8101908080519060200190929190505050612f65601c600a0a8561188690919063ffffffff16565b61190c90919063ffffffff16565b90506000808473ffffffffffffffffffffffffffffffffffffffff1673ffffffffffffffffffffffffffffffffffffffff1681526020019081526020016000206000015481111561300f576040517f08c379a00000000000000000000000000000000000000000000000000000000081526004018080602001828103825260348152602001806134a76034913960400191505060405180910390fd5b806000808573ffffffffffffffffffffffffffffffffffffffff1673ffffffffffffffffffffffffffffffffffffffff1681526020019081526020016000206000016000828254039250508190555061306982600061326d565b508273ffffffffffffffffffffffffffffffffffffffff166108fc839081150290604051600060405180830381858888f193505050501580156130b0573d6000803e3d6000fd5b50505050565b600060011515821515141561319857600660009054906101000a900473ffffffffffffffffffffffffffffffffffffffff1673ffffffffffffffffffffffffffffffffffffffff1663db006a75846040518263ffffffff167c010000000000000000000000000000000000000000000000000000000002815260040180828152602001915050602060405180830381600087803b15801561315657600080fd5b505af115801561316a573d6000803e3d6000fd5b505050506040513d602081101561318057600080fd5b81019080805190602001909291905050509050613267565b600660009054906101000a900473ffffffffffffffffffffffffffffffffffffffff1673ffffffffffffffffffffffffffffffffffffffff1663852a12e3846040518263ffffffff167c010000000000000000000000000000000000000000000000000000000002815260040180828152602001915050602060405180830381600087803b15801561322957600080fd5b505af115801561323d573d6000803e3d6000fd5b505050506040513d602081101561325357600080fd5b810190808051906020019092919050505090505b92915050565b600060011515821515141561334f57600560009054906101000a900473ffffffffffffffffffffffffffffffffffffffff1673ffffffffffffffffffffffffffffffffffffffff1663db006a75846040518263ffffffff167c010000000000000000000000000000000000000000000000000000000002815260040180828152602001915050602060405180830381600087803b15801561330d57600080fd5b505af1158015613321573d6000803e3d6000fd5b505050506040513d602081101561333757600080fd5b8101908080519060200190929190505050905061341e565b600560009054906101000a900473ffffffffffffffffffffffffffffffffffffffff1673ffffffffffffffffffffffffffffffffffffffff1663852a12e3846040518263ffffffff167c010000000000000000000000000000000000000000000000000000000002815260040180828152602001915050602060405180830381600087803b1580156133e057600080fd5b505af11580156133f4573d6000803e3d6000fd5b505050506040513d602081101561340a57600080fd5b810190808051906020019092919050505090505b9291505056fe426f72726f77696e6720616d6f756e74206d757374206265206c657373207468616e20746f74616c20617661696c61626c652e416d6f756e7420746f2072656465656d206d757374206265206c657373207468616e20636f6c6c61746572616c2e536166654d6174683a206d756c7469706c69636174696f6e206f766572666c6f7743616e6e6f742072656465656d206d6f7265207468616e20746865206c656e64696e6720616d6f756e742070726f76696465642e426f72726f77696e67206d75737420626520726570616964206265666f72652072656465656d696e6720636f6c6c61746572616c2ea264697066735822122087baf2d9521432ecaac7cb7fdf9277f163f172f0cca836cba0329e6099143b6c64736f6c63430006060033",
  "immutableReferences": {},
  "source": "pragma solidity >=0.6.6;\n\nimport \"./libraries/SafeMath.sol\";\n\nimport \"./interfaces/IERC20.sol\";\nimport \"./interfaces/IOracle.sol\";\nimport {ICErc20, ICEth} from \"./interfaces/ICompound.sol\";\n\n/**\n *  @title CompoundModule\n *  @dev Smart contracts interacting with Compound to enable real P2P lending.\n */\ncontract CompoundModule {\n    using SafeMath for uint256;\n\n    /* Structs */\n\n    struct Balance {\n        uint256 unused; // In cToken.\n        uint256 used; // In underlying Token.\n    }\n\n    /* Storage */\n\n    mapping(address => Balance) public lendingBalanceOf; // Lending balance of user (ETH/cETH).\n    mapping(address => Balance) public collateralBalanceOf; // Collateral balance of user (DAI/cDAI).\n    mapping(address => uint256) public borrowingBalanceOf; // Borrowing balance of user (ETH).\n    mapping(address => uint256) public lenderToIndex; // Position of the lender in the currentLenders list.\n    address[] public currentLenders; // Current lenders in the protocol.\n    uint256 public constant COLLATERAL_FACTOR = 10000; // Collateral factor in basis points 100% by default.\n    uint256 public constant DENOMINATOR = 10000; // Collateral factor in basis points.\n    uint256 public constant POWER = 28; // 18 + underlyingDecimals - cTokenDecimals = 18 + 18 - 8\n\n    address public constant WETH_ADDRESS =\n        0xC02aaA39b223FE8D0A0e5C4F27eAD9083C756Cc2;\n    address payable public constant CETH_ADDRESS =\n        payable(0x4Ddc2D193948926D02f9B1fE9e1daa0718270ED5);\n    address public constant DAI_ADDRESS =\n        0x6B175474E89094C44Da98b954EedeAC495271d0F;\n    address payable public constant CDAI_ADDRESS =\n        payable(0x5d3a536E4D6DbD6114cc1Ead35777bAB948E3643);\n    address public constant ORACLE_ADDRESS =\n        0x5d3a536E4D6DbD6114cc1Ead35777bAB948E3643;\n\n    ICEth public cEthToken = ICEth(CETH_ADDRESS);\n    ICErc20 public cDaiToken = ICErc20(CDAI_ADDRESS);\n    IERC20 public daiToken = IERC20(DAI_ADDRESS);\n    IOracle public oracle = IOracle(ORACLE_ADDRESS);\n\n    /* External */\n\n    /** @dev Allows someone to lend ETH.\n     *  @dev ETH is sent through msg.value.\n     */\n    function lend() external payable {\n        _supplyEthToCompound(msg.value);\n        if (lendingBalanceOf[msg.sender].unused == 0) {\n            lenderToIndex[msg.sender] = currentLenders.length;\n            currentLenders.push(msg.sender);\n        }\n        lendingBalanceOf[msg.sender].unused += msg.value.mul(10**POWER).div(\n            cEthToken.exchangeRateCurrent()\n        ); // In cToken.\n    }\n\n    /** @dev Allows someone to borrow ETH.\n     *  @param _amount Amount to borrow in ETH.\n     */\n    function borrow(uint256 _amount) external {\n        // Calculate the collateral needed.\n        uint256 daiAmountEquivalentToEthAmount = oracle.consult(\n            WETH_ADDRESS,\n            _amount,\n            DAI_ADDRESS\n        );\n\n        // uint256 daiAmountEquivalentToEthAmount = 10e18;\n\n        uint256 collateralNeededInDai = daiAmountEquivalentToEthAmount\n        .mul(COLLATERAL_FACTOR)\n        .div(DENOMINATOR);\n        // Calculate the collateral value of sender in DAI.\n        uint256 collateralNeededInCDai = collateralNeededInDai\n        .mul(10**POWER)\n        .div(cDaiToken.exchangeRateCurrent());\n        // Check if sender has enough collateral.\n        require(\n            collateralNeededInDai <= collateralBalanceOf[msg.sender].unused,\n            \"Not enough collateral.\"\n        );\n        // Check if contract has the cTokens for the borrowing.\n        uint256 amountInCEth = _amount.mul(10**POWER).div(\n            cEthToken.exchangeRateCurrent()\n        );\n        require(\n            amountInCEth <= cEthToken.balanceOf(address(this)),\n            \"Borrowing amount must be less than total available.\"\n        );\n        // Now contract can take liquidity thanks to cTokens.\n        _findUnusedCTokensAndUse(amountInCEth, msg.sender);\n        // Update used and unused collateral.\n        collateralBalanceOf[msg.sender].unused -= collateralNeededInCDai; // In cToken.\n        collateralBalanceOf[msg.sender].used += collateralNeededInDai; // In underlying.\n        borrowingBalanceOf[msg.sender] += _amount; // In underlying.\n        // Transfer ETH to borrower\n        payable(msg.sender).transfer(_amount);\n    }\n\n    /** @dev Allows someone to pay back its debt in ETH.\n     *  @dev ETH is sent as msg.value.\n     */\n    function payBack() external payable {\n        uint256 amountInCEth = msg.value.mul(10**POWER).div(\n            cEthToken.exchangeRateCurrent()\n        );\n        borrowingBalanceOf[msg.sender] -= msg.value;\n        _findUsedCTokensAndUnuse(amountInCEth, msg.sender);\n        _supplyEthToCompound(msg.value);\n    }\n\n    /** @dev Allows a lender to cash-out.\n     *  @param _amount Amount in ETH to cash-out.\n     */\n    function cashOut(uint256 _amount) external {\n        _cashOut(msg.sender, _amount);\n    }\n\n    /** @dev Allows a borrower to provide collateral in DAI.\n     *  @param _amount Amount in DAI to provide.\n     */\n    function provideCollateral(uint256 _amount) external {\n        require(_amount > 0, \"Amount cannot be 0\");\n        daiToken.approve(address(this), _amount);\n        daiToken.transferFrom(msg.sender, address(this), _amount);\n        _supplyDaiToCompound(_amount);\n        // Update the collateral balance of the sender in cDAI.\n        collateralBalanceOf[msg.sender].unused += _amount.mul(10**POWER).div(\n            cDaiToken.exchangeRateCurrent()\n        ); // In cToken.\n    }\n\n    /** @dev Allows a borrower to redeem its collateral in DAI.\n     *  @param _amount Amount in DAI to get back.\n     */\n    function redeemCollateral(uint256 _amount) external {\n        _redeemCollateral(msg.sender, _amount);\n    }\n\n    /** @dev Allows somone to liquidate a position.\n     *  @param _borrower The address of the borrowe to liquidate.\n     */\n    function liquidate(address _borrower) external payable {\n        // TODO: write function\n    }\n\n    /* Internal */\n\n    /** @dev Implements cash-out's logic for a `_lender`.\n     *  @param _lender Address of the lender to cash-out its position.\n     *  @param _amount Amount in ETH to cash-out.\n     */\n    function _cashOut(address _lender, uint256 _amount) internal {\n        if (_amount <= lendingBalanceOf[_lender].unused) {\n            _cashOutUnused(_lender, _amount);\n        } else {\n            uint256 unusedInEth = lendingBalanceOf[_lender]\n            .unused\n            .mul(cEthToken.exchangeRateCurrent())\n            .div(10**POWER);\n            _cashOutUnused(_lender, unusedInEth);\n            uint256 amountToCashOutInCEth = lendingBalanceOf[_lender].unused -\n                _amount.mul(10**POWER).div(cEthToken.exchangeRateCurrent()); // In cToken.\n            uint256 amountToCashOutInEth = amountToCashOutInCEth\n            .mul(cEthToken.exchangeRateCurrent())\n            .div(10**POWER);\n            if (cEthToken.balanceOf(address(this)) > amountToCashOutInCEth) {\n                _findUnusedCTokensAndUse(amountToCashOutInCEth, _lender);\n                lendingBalanceOf[_lender].used -= amountToCashOutInEth; // In underlying.\n                payable(_lender).transfer(amountToCashOutInEth);\n            } else {\n                // TODO: find borrower to unused.\n                cEthToken.borrow(_amount);\n                payable(_lender).transfer(_amount);\n            }\n        }\n        // If lender has no lending at all, then remove it from the list of lenders.\n        if (\n            lendingBalanceOf[_lender].unused == 0 &&\n            lendingBalanceOf[_lender].used == 0\n        ) {\n            delete currentLenders[lenderToIndex[_lender]];\n        }\n    }\n\n    /** @dev Implements collateral redeeming's logic for a `_borrower`.\n     *  @param _borrower Address of the borrower to redeem collateral for.\n     *  @param _amount Amount in DAI to redeem.\n     */\n    function _redeemCollateral(address _borrower, uint256 _amount) internal {\n        require(\n            borrowingBalanceOf[_borrower] == 0,\n            \"Borrowing must be repaid before redeeming collateral.\"\n        );\n        uint256 amountInCDai = _amount.mul(10**POWER).div(\n            cDaiToken.exchangeRateCurrent()\n        );\n        require(\n            amountInCDai <= collateralBalanceOf[msg.sender].unused,\n            \"Amount to redeem must be less than collateral.\"\n        );\n        require(\n            _redeemDaiFromCompound(_amount, false) == 0,\n            \"Redeem cDAI on Compound failed.\"\n        );\n        collateralBalanceOf[msg.sender].unused -= amountInCDai; // In cToken.\n        daiToken.transfer(_borrower, _amount);\n    }\n\n    /** @dev Cashes-out `_lender`'s unused tokens.\n     *  @param _lender Address of the lender to redeem lending for.\n     *  @param _amount Amount in ETH to redeem.\n     */\n    function _cashOutUnused(address _lender, uint256 _amount) internal {\n        uint256 amountInCEth = _amount.mul(10**POWER).div(\n            cEthToken.exchangeRateCurrent()\n        );\n        require(\n            amountInCEth <= lendingBalanceOf[_lender].unused,\n            \"Cannot redeem more than the lending amount provided.\"\n        );\n        // Update unused lending balance of `_lender`.\n        lendingBalanceOf[_lender].unused -= amountInCEth; // In cToken.\n        _redeemEthFromCompound(_amount, false);\n        payable(_lender).transfer(_amount);\n    }\n\n    /** @dev Supplies ETH to Compound.\n     *  @param _amount Amount in ETH to supply.\n     */\n    function _supplyEthToCompound(uint256 _amount) internal {\n        cEthToken.mint{value: _amount}(); // Revert on error.\n    }\n\n    /** @dev Supplies DAI to Compound.\n     *  @param _amount Amount in DAI to supply.\n     */\n    function _supplyDaiToCompound(uint256 _amount) internal {\n        // Approve transfer on the ERC20 contract.\n        daiToken.approve(CDAI_ADDRESS, _amount);\n        // Mint cTokens.\n        require(cDaiToken.mint(_amount) == 0, \"cDAI minting failed.\");\n    }\n\n    /** @dev Redeems DAI from Compound.\n     *  @dev If `_redeemType` is true pass cDAI as argument, else pass DAI.\n     *  @param _amount Amount of tokens to be redeemed.\n     *  @param _redeemType The redeem type to use on Compound.\n     *  @return result Result from Compound.\n     */\n    function _redeemDaiFromCompound(uint256 _amount, bool _redeemType)\n        internal\n        returns (uint256 result)\n    {\n        if (_redeemType == true) {\n            // Retrieve your asset based on a cDAI amount.\n            result = cDaiToken.redeem(_amount);\n        } else {\n            // Retrieve your asset based on a DAI amount.\n            result = cDaiToken.redeemUnderlying(_amount);\n        }\n    }\n\n    /** @dev Redeems ETH from Compound.\n     *  @dev If `_redeemType` is true pass cETH as argument, else pass ETH.\n     *  @param _amount Amount of tokens to be redeemed.\n     *  @param _redeemType The redeem type to use on Compound.\n     *  @return result Result from Compound.\n     */\n    function _redeemEthFromCompound(uint256 _amount, bool _redeemType)\n        internal\n        returns (uint256 result)\n    {\n        if (_redeemType == true) {\n            // Retrieve your asset based on a cETH amount.\n            result = cEthToken.redeem(_amount);\n        } else {\n            // Retrieve your asset based on an ETH amount.\n            result = cEthToken.redeemUnderlying(_amount);\n        }\n    }\n\n    /** @dev Finds unused cETH and uses them.\n     *  @param _amount Amount to unuse in cETH.\n     *  @param _lenderToAvoid Address of the lender to avoid moving liquidity.\n     */\n    function _findUnusedCTokensAndUse(uint256 _amount, address _lenderToAvoid)\n        internal\n    {\n        uint256 remainingLiquidityToUse = _amount; // In cToken.\n        uint256 i;\n        while (remainingLiquidityToUse > 0 && i < currentLenders.length) {\n            address lender = currentLenders[i];\n            if (lender != _lenderToAvoid && lender != address(0)) {\n                uint256 unused = lendingBalanceOf[lender].unused;\n\n                if (unused > 0) {\n                    uint256 amountToUse = min(unused, remainingLiquidityToUse); // In cToken.\n                    lendingBalanceOf[lender].used += amountToUse\n                    .mul(cEthToken.exchangeRateCurrent())\n                    .div(10**POWER); // In underlying.\n                    remainingLiquidityToUse -= amountToUse;\n                }\n            }\n            i++;\n        }\n        require(remainingLiquidityToUse == 0, \"Not enough liquidity to use.\");\n    }\n\n    /** @dev Finds used cETH and unuses them.\n     *  @param _amount Amount to use in cETH.\n     *  @param _lenderToAvoid Address of the lender to avoid moving liquidity.\n     */\n    function _findUsedCTokensAndUnuse(uint256 _amount, address _lenderToAvoid)\n        internal\n    {\n        uint256 remainingLiquidityToUnuse = _amount; // In cToken.\n        uint256 i;\n        while (remainingLiquidityToUnuse > 0 && i < currentLenders.length) {\n            address lender = currentLenders[i];\n            if (lender != _lenderToAvoid && lender != address(0)) {\n                uint256 used = lendingBalanceOf[lender].used;\n\n                if (used > 0) {\n                    uint256 amountToUnuse = min(\n                        used,\n                        remainingLiquidityToUnuse\n                    );\n                    lendingBalanceOf[lender].used -= amountToUnuse\n                    .mul(cEthToken.exchangeRateCurrent())\n                    .div(10**POWER); // In underlying.\n                    remainingLiquidityToUnuse -= amountToUnuse; // In cToken.\n                }\n            }\n            i++;\n        }\n        require(\n            remainingLiquidityToUnuse == 0,\n            \"Not enough liquidity to unuse.\"\n        );\n    }\n\n    function min(uint256 a, uint256 b) internal pure returns (uint256) {\n        return a < b ? a : b;\n    }\n\n    // This is needed to receive ETH when calling `redeemCEth`\n    receive() external payable {}\n}\n",
  "sourcePath": "/Users/paulframbot/leech-code/leech-contracts/contracts/CompoundModule.sol",
  "compiler": {
    "name": "solc",
    "version": "0.6.6+commit.6c089d02.Linux.g++"
  },
  "schemaVersion": "3.3.4",
  "updatedAt": "2021-07-03T11:32:32.153Z",
  "networkType": "ethereum",
  "devdoc": {
    "details": "Smart contracts interacting with Compound to enable real P2P lending.",
    "methods": {
      "borrow(uint256)": {
        "details": "Allows someone to borrow ETH.",
        "params": {
          "_amount": "Amount to borrow in ETH."
        }
      },
      "cashOut(uint256)": {
        "details": "Allows a lender to cash-out.",
        "params": {
          "_amount": "Amount in ETH to cash-out."
        }
      },
      "lend()": {
        "details": "Allows someone to lend ETH.ETH is sent through msg.value."
      },
      "liquidate(address)": {
        "details": "Allows somone to liquidate a position.",
        "params": {
          "_borrower": "The address of the borrowe to liquidate."
        }
      },
      "payBack()": {
        "details": "Allows someone to pay back its debt in ETH.ETH is sent as msg.value."
      },
      "provideCollateral(uint256)": {
        "details": "Allows a borrower to provide collateral in DAI.",
        "params": {
          "_amount": "Amount in DAI to provide."
        }
      },
      "redeemCollateral(uint256)": {
        "details": "Allows a borrower to redeem its collateral in DAI.",
        "params": {
          "_amount": "Amount in DAI to get back."
        }
      }
    },
    "title": "CompoundModule"
  },
  "userdoc": {
    "methods": {}
  }
}