{
  "contractName": "CompoundModule",
  "abi": [
    {
      "anonymous": false,
      "inputs": [
        {
          "indexed": false,
          "internalType": "string",
          "name": "",
          "type": "string"
        },
        {
          "indexed": false,
          "internalType": "uint256",
          "name": "",
          "type": "uint256"
        }
      ],
      "name": "MyLog",
      "type": "event"
    },
    {
      "inputs": [],
      "name": "CDAI_ADDRESS",
      "outputs": [
        {
          "internalType": "address payable",
          "name": "",
          "type": "address"
        }
      ],
      "stateMutability": "view",
      "type": "function",
      "constant": true
    },
    {
      "inputs": [],
      "name": "CETH_ADDRESS",
      "outputs": [
        {
          "internalType": "address payable",
          "name": "",
          "type": "address"
        }
      ],
      "stateMutability": "view",
      "type": "function",
      "constant": true
    },
    {
      "inputs": [],
      "name": "COLLATERAL_FACTOR",
      "outputs": [
        {
          "internalType": "uint256",
          "name": "",
          "type": "uint256"
        }
      ],
      "stateMutability": "view",
      "type": "function",
      "constant": true
    },
    {
      "inputs": [],
      "name": "DAI_ADDRESS",
      "outputs": [
        {
          "internalType": "address",
          "name": "",
          "type": "address"
        }
      ],
      "stateMutability": "view",
      "type": "function",
      "constant": true
    },
    {
      "inputs": [],
      "name": "DENOMINATOR",
      "outputs": [
        {
          "internalType": "uint256",
          "name": "",
          "type": "uint256"
        }
      ],
      "stateMutability": "view",
      "type": "function",
      "constant": true
    },
    {
      "inputs": [],
      "name": "ORACLE_ADDRESS",
      "outputs": [
        {
          "internalType": "address",
          "name": "",
          "type": "address"
        }
      ],
      "stateMutability": "view",
      "type": "function",
      "constant": true
    },
    {
      "inputs": [],
      "name": "WETH_ADDRESS",
      "outputs": [
        {
          "internalType": "address",
          "name": "",
          "type": "address"
        }
      ],
      "stateMutability": "view",
      "type": "function",
      "constant": true
    },
    {
      "inputs": [
        {
          "internalType": "address",
          "name": "",
          "type": "address"
        }
      ],
      "name": "borrowingBalanceOf",
      "outputs": [
        {
          "internalType": "uint256",
          "name": "",
          "type": "uint256"
        }
      ],
      "stateMutability": "view",
      "type": "function",
      "constant": true
    },
    {
      "inputs": [],
      "name": "cDaiToken",
      "outputs": [
        {
          "internalType": "contract ICErc20",
          "name": "",
          "type": "address"
        }
      ],
      "stateMutability": "view",
      "type": "function",
      "constant": true
    },
    {
      "inputs": [],
      "name": "cEthToken",
      "outputs": [
        {
          "internalType": "contract ICEth",
          "name": "",
          "type": "address"
        }
      ],
      "stateMutability": "view",
      "type": "function",
      "constant": true
    },
    {
      "inputs": [
        {
          "internalType": "address",
          "name": "",
          "type": "address"
        }
      ],
      "name": "collateralBalanceOf",
      "outputs": [
        {
          "internalType": "uint256",
          "name": "total",
          "type": "uint256"
        },
        {
          "internalType": "uint256",
          "name": "used",
          "type": "uint256"
        }
      ],
      "stateMutability": "view",
      "type": "function",
      "constant": true
    },
    {
      "inputs": [
        {
          "internalType": "uint256",
          "name": "",
          "type": "uint256"
        }
      ],
      "name": "currentLenders",
      "outputs": [
        {
          "internalType": "address",
          "name": "",
          "type": "address"
        }
      ],
      "stateMutability": "view",
      "type": "function",
      "constant": true
    },
    {
      "inputs": [],
      "name": "daiToken",
      "outputs": [
        {
          "internalType": "contract IERC20",
          "name": "",
          "type": "address"
        }
      ],
      "stateMutability": "view",
      "type": "function",
      "constant": true
    },
    {
      "inputs": [
        {
          "internalType": "address",
          "name": "",
          "type": "address"
        }
      ],
      "name": "lenderToIndex",
      "outputs": [
        {
          "internalType": "uint256",
          "name": "",
          "type": "uint256"
        }
      ],
      "stateMutability": "view",
      "type": "function",
      "constant": true
    },
    {
      "inputs": [
        {
          "internalType": "address",
          "name": "",
          "type": "address"
        }
      ],
      "name": "lendingBalanceOf",
      "outputs": [
        {
          "internalType": "uint256",
          "name": "total",
          "type": "uint256"
        },
        {
          "internalType": "uint256",
          "name": "used",
          "type": "uint256"
        }
      ],
      "stateMutability": "view",
      "type": "function",
      "constant": true
    },
    {
      "inputs": [],
      "name": "oracle",
      "outputs": [
        {
          "internalType": "contract IOracle",
          "name": "",
          "type": "address"
        }
      ],
      "stateMutability": "view",
      "type": "function",
      "constant": true
    },
    {
      "inputs": [],
      "name": "lend",
      "outputs": [],
      "stateMutability": "payable",
      "type": "function",
      "payable": true
    },
    {
      "inputs": [
        {
          "internalType": "uint256",
          "name": "_amount",
          "type": "uint256"
        }
      ],
      "name": "borrow",
      "outputs": [],
      "stateMutability": "nonpayable",
      "type": "function"
    },
    {
      "inputs": [],
      "name": "payBackAll",
      "outputs": [],
      "stateMutability": "payable",
      "type": "function",
      "payable": true
    },
    {
      "inputs": [
        {
          "internalType": "uint256",
          "name": "_amount",
          "type": "uint256"
        }
      ],
      "name": "cashOut",
      "outputs": [],
      "stateMutability": "nonpayable",
      "type": "function"
    },
    {
      "inputs": [
        {
          "internalType": "uint256",
          "name": "_amount",
          "type": "uint256"
        }
      ],
      "name": "provideCollateral",
      "outputs": [],
      "stateMutability": "payable",
      "type": "function",
      "payable": true
    },
    {
      "inputs": [
        {
          "internalType": "uint256",
          "name": "_amount",
          "type": "uint256"
        }
      ],
      "name": "redeemCollateral",
      "outputs": [],
      "stateMutability": "nonpayable",
      "type": "function"
    },
    {
      "inputs": [
        {
          "internalType": "address",
          "name": "_borrower",
          "type": "address"
        }
      ],
      "name": "liquidate",
      "outputs": [],
      "stateMutability": "nonpayable",
      "type": "function"
    }
  ],
  "bytecode": "0x6080604052734ddc2d193948926d02f9b1fe9e1daa0718270ed5600560006101000a81548173ffffffffffffffffffffffffffffffffffffffff021916908373ffffffffffffffffffffffffffffffffffffffff160217905550735d3a536e4d6dbd6114cc1ead35777bab948e3643600660006101000a81548173ffffffffffffffffffffffffffffffffffffffff021916908373ffffffffffffffffffffffffffffffffffffffff160217905550736b175474e89094c44da98b954eedeac495271d0f600760006101000a81548173ffffffffffffffffffffffffffffffffffffffff021916908373ffffffffffffffffffffffffffffffffffffffff160217905550735d3a536e4d6dbd6114cc1ead35777bab948e3643600860006101000a81548173ffffffffffffffffffffffffffffffffffffffff021916908373ffffffffffffffffffffffffffffffffffffffff16021790555034801561016457600080fd5b50612a92806101746000396000f3fe60806040526004361061015d576000357c010000000000000000000000000000000000000000000000000000000090048063918f8674116100d3578063c964a2f21161008c578063c964a2f21461064d578063d5038527146106b9578063e1a607fa1461071e578063f0c3c06b14610799578063f4104139146107c7578063fcfc430c146107d15761015d565b8063918f8674146104f457806397dffc611461051f578063ba266b1314610529578063bd37b77514610580578063be22f546146105bb578063c5ebeaec146106125761015d565b80632f865568116101255780632f865568146102fe5780634ab45d331461034f5780635af6f411146103a65780635c7b79f51461040b5780637cd3d2cd146104465780637dc0d1d01461049d5761015d565b8063040141e5146101625780630531b2ad146101b957806317f49e05146102105780632787d0321461023b5780632a4c0a1a146102a7575b600080fd5b34801561016e57600080fd5b50610177610828565b604051808273ffffffffffffffffffffffffffffffffffffffff1673ffffffffffffffffffffffffffffffffffffffff16815260200191505060405180910390f35b3480156101c557600080fd5b506101ce610840565b604051808273ffffffffffffffffffffffffffffffffffffffff1673ffffffffffffffffffffffffffffffffffffffff16815260200191505060405180910390f35b34801561021c57600080fd5b50610225610858565b6040518082815260200191505060405180910390f35b34801561024757600080fd5b5061028a6004803603602081101561025e57600080fd5b81019080803573ffffffffffffffffffffffffffffffffffffffff16906020019092919050505061085e565b604051808381526020018281526020019250505060405180910390f35b3480156102b357600080fd5b506102bc610882565b604051808273ffffffffffffffffffffffffffffffffffffffff1673ffffffffffffffffffffffffffffffffffffffff16815260200191505060405180910390f35b34801561030a57600080fd5b5061034d6004803603602081101561032157600080fd5b81019080803573ffffffffffffffffffffffffffffffffffffffff16906020019092919050505061089a565b005b34801561035b57600080fd5b5061036461089d565b604051808273ffffffffffffffffffffffffffffffffffffffff1673ffffffffffffffffffffffffffffffffffffffff16815260200191505060405180910390f35b3480156103b257600080fd5b506103f5600480360360208110156103c957600080fd5b81019080803573ffffffffffffffffffffffffffffffffffffffff1690602001909291905050506108b5565b6040518082815260200191505060405180910390f35b34801561041757600080fd5b506104446004803603602081101561042e57600080fd5b81019080803590602001909291905050506108cd565b005b34801561045257600080fd5b5061045b6108da565b604051808273ffffffffffffffffffffffffffffffffffffffff1673ffffffffffffffffffffffffffffffffffffffff16815260200191505060405180910390f35b3480156104a957600080fd5b506104b2610900565b604051808273ffffffffffffffffffffffffffffffffffffffff1673ffffffffffffffffffffffffffffffffffffffff16815260200191505060405180910390f35b34801561050057600080fd5b50610509610926565b6040518082815260200191505060405180910390f35b61052761092c565b005b34801561053557600080fd5b5061053e610a7d565b604051808273ffffffffffffffffffffffffffffffffffffffff1673ffffffffffffffffffffffffffffffffffffffff16815260200191505060405180910390f35b34801561058c57600080fd5b506105b9600480360360208110156105a357600080fd5b8101908080359060200190929190505050610aa3565b005b3480156105c757600080fd5b506105d0610ab0565b604051808273ffffffffffffffffffffffffffffffffffffffff1673ffffffffffffffffffffffffffffffffffffffff16815260200191505060405180910390f35b34801561061e57600080fd5b5061064b6004803603602081101561063557600080fd5b8101908080359060200190929190505050610ad6565b005b34801561065957600080fd5b5061069c6004803603602081101561067057600080fd5b81019080803573ffffffffffffffffffffffffffffffffffffffff169060200190929190505050611052565b604051808381526020018281526020019250505060405180910390f35b3480156106c557600080fd5b50610708600480360360208110156106dc57600080fd5b81019080803573ffffffffffffffffffffffffffffffffffffffff169060200190929190505050611076565b6040518082815260200191505060405180910390f35b34801561072a57600080fd5b506107576004803603602081101561074157600080fd5b810190808035906020019092919050505061108e565b604051808273ffffffffffffffffffffffffffffffffffffffff1673ffffffffffffffffffffffffffffffffffffffff16815260200191505060405180910390f35b6107c5600480360360208110156107af57600080fd5b81019080803590602001909291905050506110ca565b005b6107cf6113d2565b005b3480156107dd57600080fd5b506107e66116a3565b604051808273ffffffffffffffffffffffffffffffffffffffff1673ffffffffffffffffffffffffffffffffffffffff16815260200191505060405180910390f35b73c02aaa39b223fe8d0a0e5c4f27ead9083c756cc281565b735d3a536e4d6dbd6114cc1ead35777bab948e364381565b61271081565b60006020528060005260406000206000915090508060000154908060010154905082565b736b175474e89094c44da98b954eedeac495271d0f81565b50565b734ddc2d193948926d02f9b1fe9e1daa0718270ed581565b60026020528060005260406000206000915090505481565b6108d733826116bb565b50565b600560009054906101000a900473ffffffffffffffffffffffffffffffffffffffff1681565b600860009054906101000a900473ffffffffffffffffffffffffffffffffffffffff1681565b61271081565b61093534611aaa565b60008060003373ffffffffffffffffffffffffffffffffffffffff1673ffffffffffffffffffffffffffffffffffffffff168152602001908152602001600020600001541415610a2c57600480549050600360003373ffffffffffffffffffffffffffffffffffffffff1673ffffffffffffffffffffffffffffffffffffffff168152602001908152602001600020819055506004339080600181540180825580915050600190039060005260206000200160009091909190916101000a81548173ffffffffffffffffffffffffffffffffffffffff021916908373ffffffffffffffffffffffffffffffffffffffff1602179055505b346000803373ffffffffffffffffffffffffffffffffffffffff1673ffffffffffffffffffffffffffffffffffffffff16815260200190815260200160002060000160008282540192505081905550565b600660009054906101000a900473ffffffffffffffffffffffffffffffffffffffff1681565b610aad3382611b4c565b50565b600760009054906101000a900473ffffffffffffffffffffffffffffffffffffffff1681565b6000600860009054906101000a900473ffffffffffffffffffffffffffffffffffffffff1673ffffffffffffffffffffffffffffffffffffffff16638c86f1e473c02aaa39b223fe8d0a0e5c4f27ead9083c756cc284736b175474e89094c44da98b954eedeac495271d0f6040518463ffffffff167c0100000000000000000000000000000000000000000000000000000000028152600401808473ffffffffffffffffffffffffffffffffffffffff1673ffffffffffffffffffffffffffffffffffffffff1681526020018381526020018273ffffffffffffffffffffffffffffffffffffffff1673ffffffffffffffffffffffffffffffffffffffff168152602001935050505060206040518083038186803b158015610bf757600080fd5b505afa158015610c0b573d6000803e3d6000fd5b505050506040513d6020811015610c2157600080fd5b810190808051906020019092919050505090506000600160003373ffffffffffffffffffffffffffffffffffffffff1673ffffffffffffffffffffffffffffffffffffffff16815260200190815260200160002060010154600160003373ffffffffffffffffffffffffffffffffffffffff1673ffffffffffffffffffffffffffffffffffffffff168152602001908152602001600020600001540390506000612710808481610ccd57fe5b0402905081811115610d47576040517f08c379a00000000000000000000000000000000000000000000000000000000081526004018080602001828103825260168152602001807f4e6f7420656e6f75676820636f6c6c61746572616c2e0000000000000000000081525060200191505060405180910390fd5b6000600660009054906101000a900473ffffffffffffffffffffffffffffffffffffffff1673ffffffffffffffffffffffffffffffffffffffff1663bd6d894d6040518163ffffffff167c0100000000000000000000000000000000000000000000000000000000028152600401602060405180830381600087803b158015610dcf57600080fd5b505af1158015610de3573d6000803e3d6000fd5b505050506040513d6020811015610df957600080fd5b8101908080519060200190929190505050600660009054906101000a900473ffffffffffffffffffffffffffffffffffffffff1673ffffffffffffffffffffffffffffffffffffffff166370a08231306040518263ffffffff167c0100000000000000000000000000000000000000000000000000000000028152600401808273ffffffffffffffffffffffffffffffffffffffff1673ffffffffffffffffffffffffffffffffffffffff168152602001915050602060405180830381600087803b158015610ec757600080fd5b505af1158015610edb573d6000803e3d6000fd5b505050506040513d6020811015610ef157600080fd5b810190808051906020019092919050505002905080851115610f5e576040517f08c379a00000000000000000000000000000000000000000000000000000000081526004018080602001828103825260358152602001806129bf6035913960400191505060405180910390fd5b610f6785611e5b565b81600160003373ffffffffffffffffffffffffffffffffffffffff1673ffffffffffffffffffffffffffffffffffffffff1681526020019081526020016000206001016000828254019250508190555084600260003373ffffffffffffffffffffffffffffffffffffffff1673ffffffffffffffffffffffffffffffffffffffff168152602001908152602001600020600082825401925050819055503373ffffffffffffffffffffffffffffffffffffffff166108fc869081150290604051600060405180830381858888f1935050505015801561104a573d6000803e3d6000fd5b505050505050565b60016020528060005260406000206000915090508060000154908060010154905082565b60036020528060005260406000206000915090505481565b6004818154811061109b57fe5b906000526020600020016000915054906101000a900473ffffffffffffffffffffffffffffffffffffffff1681565b60008111611140576040517f08c379a00000000000000000000000000000000000000000000000000000000081526004018080602001828103825260128152602001807f416d6f756e742063616e6e6f742062652030000000000000000000000000000081525060200191505060405180910390fd5b600760009054906101000a900473ffffffffffffffffffffffffffffffffffffffff1673ffffffffffffffffffffffffffffffffffffffff1663095ea7b330836040518363ffffffff167c0100000000000000000000000000000000000000000000000000000000028152600401808373ffffffffffffffffffffffffffffffffffffffff1673ffffffffffffffffffffffffffffffffffffffff16815260200182815260200192505050602060405180830381600087803b15801561120557600080fd5b505af1158015611219573d6000803e3d6000fd5b505050506040513d602081101561122f57600080fd5b810190808051906020019092919050505050600760009054906101000a900473ffffffffffffffffffffffffffffffffffffffff1673ffffffffffffffffffffffffffffffffffffffff166323b872dd3330346040518463ffffffff167c0100000000000000000000000000000000000000000000000000000000028152600401808473ffffffffffffffffffffffffffffffffffffffff1673ffffffffffffffffffffffffffffffffffffffff1681526020018373ffffffffffffffffffffffffffffffffffffffff1673ffffffffffffffffffffffffffffffffffffffff1681526020018281526020019350505050602060405180830381600087803b15801561133a57600080fd5b505af115801561134e573d6000803e3d6000fd5b505050506040513d602081101561136457600080fd5b81019080805190602001909291905050505061137f81612036565b80600160003373ffffffffffffffffffffffffffffffffffffffff1673ffffffffffffffffffffffffffffffffffffffff1681526020019081526020016000206000016000828254019250508190555050565b600260003373ffffffffffffffffffffffffffffffffffffffff1673ffffffffffffffffffffffffffffffffffffffff16815260200190815260200160002054341015611487576040517f08c379a000000000000000000000000000000000000000000000000000000000815260040180806020018281038252601a8152602001807f4d757374207061796261636b20616c6c2074686520646562742e00000000000081525060200191505060405180910390fd5b3073ffffffffffffffffffffffffffffffffffffffff166108fc349081150290604051600060405180830381858888f193505050501580156114cd573d6000803e3d6000fd5b506114d734611aaa565b6114e03461228f565b6000600860009054906101000a900473ffffffffffffffffffffffffffffffffffffffff1673ffffffffffffffffffffffffffffffffffffffff16638c86f1e473c02aaa39b223fe8d0a0e5c4f27ead9083c756cc234736b175474e89094c44da98b954eedeac495271d0f6040518463ffffffff167c0100000000000000000000000000000000000000000000000000000000028152600401808473ffffffffffffffffffffffffffffffffffffffff1673ffffffffffffffffffffffffffffffffffffffff1681526020018381526020018273ffffffffffffffffffffffffffffffffffffffff1673ffffffffffffffffffffffffffffffffffffffff168152602001935050505060206040518083038186803b15801561160157600080fd5b505afa158015611615573d6000803e3d6000fd5b505050506040513d602081101561162b57600080fd5b81019080805190602001909291905050509050600061271080838161164c57fe5b040290506000600260003373ffffffffffffffffffffffffffffffffffffffff1673ffffffffffffffffffffffffffffffffffffffff1681526020019081526020016000208190555061169f3382611b4c565b5050565b735d3a536e4d6dbd6114cc1ead35777bab948e364381565b60008060008473ffffffffffffffffffffffffffffffffffffffff1673ffffffffffffffffffffffffffffffffffffffff16815260200190815260200160002060010154141561176357806000808473ffffffffffffffffffffffffffffffffffffffff1673ffffffffffffffffffffffffffffffffffffffff1681526020019081526020016000206000016000828254039250508190555061175e338261242f565b611a2d565b6000600560009054906101000a900473ffffffffffffffffffffffffffffffffffffffff1673ffffffffffffffffffffffffffffffffffffffff166370a08231306040518263ffffffff167c0100000000000000000000000000000000000000000000000000000000028152600401808273ffffffffffffffffffffffffffffffffffffffff1673ffffffffffffffffffffffffffffffffffffffff168152602001915050602060405180830381600087803b15801561182257600080fd5b505af1158015611836573d6000803e3d6000fd5b505050506040513d602081101561184c57600080fd5b8101908080519060200190929190505050111561187b5761186c81611e5b565b611876338261242f565b611a2c565b600560009054906101000a900473ffffffffffffffffffffffffffffffffffffffff1673ffffffffffffffffffffffffffffffffffffffff1663c5ebeaec826040518263ffffffff167c010000000000000000000000000000000000000000000000000000000002815260040180828152602001915050602060405180830381600087803b15801561190c57600080fd5b505af1158015611920573d6000803e3d6000fd5b505050506040513d602081101561193657600080fd5b81019080805190602001909291905050505080600260008473ffffffffffffffffffffffffffffffffffffffff1673ffffffffffffffffffffffffffffffffffffffff16815260200190815260200160002060008282540192505081905550806000808473ffffffffffffffffffffffffffffffffffffffff1673ffffffffffffffffffffffffffffffffffffffff168152602001908152602001600020600001600082825403925050819055508173ffffffffffffffffffffffffffffffffffffffff166108fc829081150290604051600060405180830381858888f19350505050158015611a2a573d6000803e3d6000fd5b505b5b6004600360008473ffffffffffffffffffffffffffffffffffffffff1673ffffffffffffffffffffffffffffffffffffffff1681526020019081526020016000205481548110611a7957fe5b9060005260206000200160006101000a81549073ffffffffffffffffffffffffffffffffffffffff02191690555050565b600560009054906101000a900473ffffffffffffffffffffffffffffffffffffffff1673ffffffffffffffffffffffffffffffffffffffff16631249c58b826040518263ffffffff167c01000000000000000000000000000000000000000000000000000000000281526004016000604051808303818588803b158015611b3057600080fd5b505af1158015611b44573d6000803e3d6000fd5b505050505050565b6000600260008473ffffffffffffffffffffffffffffffffffffffff1673ffffffffffffffffffffffffffffffffffffffff1681526020019081526020016000205414611be4576040517f08c379a0000000000000000000000000000000000000000000000000000000008152600401808060200182810382526035815260200180612a286035913960400191505060405180910390fd5b600160003373ffffffffffffffffffffffffffffffffffffffff1673ffffffffffffffffffffffffffffffffffffffff16815260200190815260200160002060000154811115611c77576040517f08c379a0000000000000000000000000000000000000000000000000000000008152600401808060200182810382526000815260200160200191505060405180910390fd5b6000611c84826000612637565b14611cd2576040517f08c379a0000000000000000000000000000000000000000000000000000000008152600401808060200182810382526000815260200160200191505060405180910390fd5b80600160003373ffffffffffffffffffffffffffffffffffffffff1673ffffffffffffffffffffffffffffffffffffffff16815260200190815260200160002060000160008282540392505081905550600760009054906101000a900473ffffffffffffffffffffffffffffffffffffffff1673ffffffffffffffffffffffffffffffffffffffff166323b872dd3084846040518463ffffffff167c0100000000000000000000000000000000000000000000000000000000028152600401808473ffffffffffffffffffffffffffffffffffffffff1673ffffffffffffffffffffffffffffffffffffffff1681526020018373ffffffffffffffffffffffffffffffffffffffff1673ffffffffffffffffffffffffffffffffffffffff1681526020018281526020019350505050602060405180830381600087803b158015611e1b57600080fd5b505af1158015611e2f573d6000803e3d6000fd5b505050506040513d6020811015611e4557600080fd5b8101908080519060200190929190505050505050565b600081905060005b600082118015611e77575060048054905081105b15611fbb57600060048281548110611e8b57fe5b9060005260206000200160009054906101000a900473ffffffffffffffffffffffffffffffffffffffff16905060008060008373ffffffffffffffffffffffffffffffffffffffff1673ffffffffffffffffffffffffffffffffffffffff168152602001908152602001600020600101546000808473ffffffffffffffffffffffffffffffffffffffff1673ffffffffffffffffffffffffffffffffffffffff168152602001908152602001600020600001540390506000811115611fae576000611f5682866127ee565b9050806000808573ffffffffffffffffffffffffffffffffffffffff1673ffffffffffffffffffffffffffffffffffffffff168152602001908152602001600020600101600082825401925050819055508085039450505b6001830192505050611e63565b60008214612031576040517f08c379a000000000000000000000000000000000000000000000000000000000815260040180806020018281038252601c8152602001807f4e6f7420656e6f756768206c697175696469747920746f207573652e0000000081525060200191505060405180910390fd5b505050565b600760009054906101000a900473ffffffffffffffffffffffffffffffffffffffff1673ffffffffffffffffffffffffffffffffffffffff1663095ea7b3735d3a536e4d6dbd6114cc1ead35777bab948e3643836040518363ffffffff167c0100000000000000000000000000000000000000000000000000000000028152600401808373ffffffffffffffffffffffffffffffffffffffff1673ffffffffffffffffffffffffffffffffffffffff16815260200182815260200192505050602060405180830381600087803b15801561210f57600080fd5b505af1158015612123573d6000803e3d6000fd5b505050506040513d602081101561213957600080fd5b8101908080519060200190929190505050506000600660009054906101000a900473ffffffffffffffffffffffffffffffffffffffff1673ffffffffffffffffffffffffffffffffffffffff1663a0712d68836040518263ffffffff167c010000000000000000000000000000000000000000000000000000000002815260040180828152602001915050602060405180830381600087803b1580156121de57600080fd5b505af11580156121f2573d6000803e3d6000fd5b505050506040513d602081101561220857600080fd5b81019080805190602001909291905050501461228c576040517f08c379a00000000000000000000000000000000000000000000000000000000081526004018080602001828103825260188152602001807f43616c6c20746f20436f6d706f756e64206661696c65642e000000000000000081525060200191505060405180910390fd5b50565b6000819050600060048054905090505b6000821180156122b3575060048054905081105b156123b4576000600482815481106122c757fe5b9060005260206000200160009054906101000a900473ffffffffffffffffffffffffffffffffffffffff16905060008060008373ffffffffffffffffffffffffffffffffffffffff1673ffffffffffffffffffffffffffffffffffffffff16815260200190815260200160002060010154905060008111156123a757600061234f82866127ee565b9050806000808573ffffffffffffffffffffffffffffffffffffffff1673ffffffffffffffffffffffffffffffffffffffff168152602001908152602001600020600101600082825403925050819055508085039450505b600183019250505061229f565b6000821461242a576040517f08c379a000000000000000000000000000000000000000000000000000000000815260040180806020018281038252601e8152602001807f4e6f7420656e6f756768206c697175696469747920746f20756e7573652e000081525060200191505060405180910390fd5b505050565b6000803373ffffffffffffffffffffffffffffffffffffffff1673ffffffffffffffffffffffffffffffffffffffff168152602001908152602001600020600001548111156124c9576040517f08c379a00000000000000000000000000000000000000000000000000000000081526004018080602001828103825260348152602001806129f46034913960400191505060405180910390fd5b6124d4816000612807565b506000600560009054906101000a900473ffffffffffffffffffffffffffffffffffffffff1673ffffffffffffffffffffffffffffffffffffffff1663bd6d894d6040518163ffffffff167c0100000000000000000000000000000000000000000000000000000000028152600401602060405180830381600087803b15801561255d57600080fd5b505af1158015612571573d6000803e3d6000fd5b505050506040513d602081101561258757600080fd5b810190808051906020019092919050505082029050816000803373ffffffffffffffffffffffffffffffffffffffff1673ffffffffffffffffffffffffffffffffffffffff168152602001908152602001600020600001600082825403925050819055508273ffffffffffffffffffffffffffffffffffffffff166108fc829081150290604051600060405180830381858888f19350505050158015612631573d6000803e3d6000fd5b50505050565b600060011515821515141561271957600660009054906101000a900473ffffffffffffffffffffffffffffffffffffffff1673ffffffffffffffffffffffffffffffffffffffff1663db006a75846040518263ffffffff167c010000000000000000000000000000000000000000000000000000000002815260040180828152602001915050602060405180830381600087803b1580156126d757600080fd5b505af11580156126eb573d6000803e3d6000fd5b505050506040513d602081101561270157600080fd5b810190808051906020019092919050505090506127e8565b600660009054906101000a900473ffffffffffffffffffffffffffffffffffffffff1673ffffffffffffffffffffffffffffffffffffffff1663852a12e3846040518263ffffffff167c010000000000000000000000000000000000000000000000000000000002815260040180828152602001915050602060405180830381600087803b1580156127aa57600080fd5b505af11580156127be573d6000803e3d6000fd5b505050506040513d60208110156127d457600080fd5b810190808051906020019092919050505090505b92915050565b60008183106127fd57816127ff565b825b905092915050565b60006001151582151514156128e957600560009054906101000a900473ffffffffffffffffffffffffffffffffffffffff1673ffffffffffffffffffffffffffffffffffffffff1663db006a75846040518263ffffffff167c010000000000000000000000000000000000000000000000000000000002815260040180828152602001915050602060405180830381600087803b1580156128a757600080fd5b505af11580156128bb573d6000803e3d6000fd5b505050506040513d60208110156128d157600080fd5b810190808051906020019092919050505090506129b8565b600560009054906101000a900473ffffffffffffffffffffffffffffffffffffffff1673ffffffffffffffffffffffffffffffffffffffff1663852a12e3846040518263ffffffff167c010000000000000000000000000000000000000000000000000000000002815260040180828152602001915050602060405180830381600087803b15801561297a57600080fd5b505af115801561298e573d6000803e3d6000fd5b505050506040513d60208110156129a457600080fd5b810190808051906020019092919050505090505b9291505056fe416d6f756e7420746f20626f72726f772073686f756c64206265206c657373207468616e20746f74616c20617661696c61626c652e43616e6e6f742072656465656d206d6f7265207468616e20746865206c656e64696e6720616d6f756e742070726f76696465642e426f72726f77696e67206d75737420626520726570616964206265666f72652072656465656d696e6720636f6c6c61746572616c2ea2646970667358221220f16ea3dc7f00dd9889e23f6d6747b239f9bffc2a48599feaf5930c69276f276d64736f6c63430006060033",
  "immutableReferences": {},
  "source": "pragma solidity >=0.6.6;\n\nimport \"./libraries/SafeMath.sol\";\n\nimport \"./interfaces/IERC20.sol\";\nimport \"./interfaces/IOracle.sol\";\nimport {ICErc20, ICEth} from \"./interfaces/ICompound.sol\";\n\ncontract CompoundModule {\n    using SafeMath for uint256;\n\n    event MyLog(string, uint256);\n\n    /* Structs */\n\n    struct Balance {\n        uint256 total;\n        uint256 used;\n    }\n\n    /* Storage */\n\n    mapping(address => Balance) public lendingBalanceOf; // Lending balance of user (ETH).\n    mapping(address => Balance) public collateralBalanceOf; // Collateral balance of user (ETH).\n    mapping(address => uint256) public borrowingBalanceOf; // Borrowing balance of user (DAI).\n    mapping(address => uint256) public lenderToIndex; // Position of the lender in the currentLenders list.\n    address[] public currentLenders; // Current lenders in the protocol.\n    uint256 public constant COLLATERAL_FACTOR = 10000; // Collateral factor in basis points 100% by default.\n    uint256 public constant DENOMINATOR = 10000; // Collateral factor in basis points.\n\n    address public constant WETH_ADDRESS =\n        0xC02aaA39b223FE8D0A0e5C4F27eAD9083C756Cc2;\n    address payable public constant CETH_ADDRESS =\n        payable(0x4Ddc2D193948926D02f9B1fE9e1daa0718270ED5);\n    address public constant DAI_ADDRESS =\n        0x6B175474E89094C44Da98b954EedeAC495271d0F;\n    address payable public constant CDAI_ADDRESS =\n        payable(0x5d3a536E4D6DbD6114cc1Ead35777bAB948E3643);\n    address public constant ORACLE_ADDRESS =\n        0x5d3a536E4D6DbD6114cc1Ead35777bAB948E3643;\n\n    ICEth public cEthToken = ICEth(CETH_ADDRESS);\n    ICErc20 public cDaiToken = ICErc20(CDAI_ADDRESS);\n    IERC20 public daiToken = IERC20(DAI_ADDRESS);\n    IOracle public oracle = IOracle(ORACLE_ADDRESS);\n\n    /* External */\n\n    function lend() external payable {\n        _supplyEthToCompound(msg.value);\n        if (lendingBalanceOf[msg.sender].total == 0) {\n            lenderToIndex[msg.sender] = currentLenders.length;\n            currentLenders.push(msg.sender);\n        }\n        lendingBalanceOf[msg.sender].total += msg.value;\n    }\n\n    function borrow(uint256 _amount) external {\n        // Verify that borrower has enough collateral\n        uint256 daiAmountEquivalentToEthAmount = oracle.consult(\n            WETH_ADDRESS,\n            _amount,\n            DAI_ADDRESS\n        );\n        uint256 unusedCollateral = collateralBalanceOf[msg.sender].total -\n            collateralBalanceOf[msg.sender].used;\n        uint256 collateralNeeded = (daiAmountEquivalentToEthAmount /\n            DENOMINATOR) * COLLATERAL_FACTOR;\n        require(collateralNeeded <= unusedCollateral, \"Not enough collateral.\");\n\n        // Check if contract has the cTokens for the borrowing\n        uint256 availableTokensToBorrow = cDaiToken.balanceOf(address(this)) *\n            cDaiToken.exchangeRateCurrent();\n        require(\n            _amount <= availableTokensToBorrow,\n            \"Amount to borrow should be less than total available.\"\n        );\n\n        // Now contract can take liquidity thanks to cTokens\n        _findUnusedCTokensAndUse(_amount);\n\n        // Update used collateral\n        collateralBalanceOf[msg.sender].used += collateralNeeded;\n        borrowingBalanceOf[msg.sender] += _amount;\n\n        // Transfer ETH to borrower\n        payable(msg.sender).transfer(_amount);\n    }\n\n    function payBackAll() external payable {\n        require(\n            msg.value >= borrowingBalanceOf[msg.sender],\n            \"Must payback all the debt.\"\n        );\n        payable(address(this)).transfer(msg.value);\n        _supplyEthToCompound(msg.value);\n        _findUsedCTokensAndUnuse(msg.value);\n        uint256 daiAmountEquivalentToEthAmount = oracle.consult(\n            WETH_ADDRESS,\n            msg.value,\n            DAI_ADDRESS\n        );\n        uint256 amountToRedeem = (daiAmountEquivalentToEthAmount /\n            DENOMINATOR) * COLLATERAL_FACTOR;\n        borrowingBalanceOf[msg.sender] = 0;\n        _redeemCollateral(msg.sender, amountToRedeem);\n    }\n\n    function cashOut(uint256 _amount) external {\n        _cashOut(msg.sender, _amount);\n    }\n\n    function provideCollateral(uint256 _amount) external payable {\n        require(_amount > 0, \"Amount cannot be 0\");\n        daiToken.approve(address(this), _amount);\n        daiToken.transferFrom(msg.sender, address(this), msg.value);\n        _supplyDaiToCompound(_amount);\n        // We update the collateral balance of the sender.\n        collateralBalanceOf[msg.sender].total += _amount;\n    }\n\n    function redeemCollateral(uint256 _amount) external {\n        _redeemCollateral(msg.sender, _amount);\n    }\n\n    function liquidate(address _borrower) external {\n        // TODO: write function\n    }\n\n    /* Internal */\n\n    function _cashOut(address _lender, uint256 _amount) internal {\n        if (lendingBalanceOf[_lender].used == 0) {\n            lendingBalanceOf[_lender].total -= _amount;\n            _redeemLending(msg.sender, _amount);\n        } else if (cEthToken.balanceOf(address(this)) > 0) {\n            _findUnusedCTokensAndUse(_amount);\n            _redeemLending(msg.sender, _amount);\n        } else {\n            cEthToken.borrow(_amount);\n            borrowingBalanceOf[_lender] += _amount;\n            lendingBalanceOf[_lender].total -= _amount;\n            payable(_lender).transfer(_amount);\n        }\n        delete currentLenders[lenderToIndex[_lender]];\n    }\n\n    function _redeemCollateral(address _borrower, uint256 _amount) internal {\n        require(\n            borrowingBalanceOf[_borrower] == 0,\n            \"Borrowing must be repaid before redeeming collateral.\"\n        );\n        require(_amount <= collateralBalanceOf[msg.sender].total, \"\");\n        require(_redeemCDaiFromCompound(_amount, false) == 0, \"\");\n        collateralBalanceOf[msg.sender].total -= _amount;\n        daiToken.transferFrom(address(this), _borrower, _amount);\n    }\n\n    function _redeemLending(address _lender, uint256 _amount) internal {\n        require(\n            _amount <= lendingBalanceOf[msg.sender].total,\n            \"Cannot redeem more than the lending amount provided.\"\n        );\n        _redeemCEthFromCompound(_amount, false);\n        // Amount of Tokens given by Compound calculation.\n        uint256 amountRedeemed = _amount * cEthToken.exchangeRateCurrent();\n        // The sender does not have any collateral anymore.\n        lendingBalanceOf[msg.sender].total -= _amount;\n        // Finally leech transfers it to the user.\n        payable(_lender).transfer(amountRedeemed);\n    }\n\n    function _supplyEthToCompound(uint256 _amount) internal {\n        cEthToken.mint{value: _amount}(); // Revert on error.\n    }\n\n    function _supplyDaiToCompound(uint256 _amount) internal {\n        // Approve transfer on the ERC20 contract.\n        daiToken.approve(CDAI_ADDRESS, _amount);\n        // Mint cTokens.\n        require(cDaiToken.mint(_amount) == 0, \"Call to Compound failed.\");\n    }\n\n    function _redeemCDaiFromCompound(uint256 _amount, bool _redeemType)\n        internal\n        returns(uint256 result)\n    {\n        if (_redeemType == true) {\n            // Retrieve your asset based on a cToken amount\n            result = cDaiToken.redeem(_amount);\n        } else {\n            // Retrieve your asset based on an amount of the asset\n            result = cDaiToken.redeemUnderlying(_amount);\n        }\n    }\n\n    function _redeemCEthFromCompound(uint256 _amount, bool _redeemType)\n        internal\n        returns(uint256 result)\n    {\n        if (_redeemType == true) {\n            // Retrieve your asset based on a cToken amount\n            result = cEthToken.redeem(_amount);\n        } else {\n            // Retrieve your asset based on an amount of the asset\n            result = cEthToken.redeemUnderlying(_amount);\n        }\n    }\n\n    function _findUnusedCTokensAndUse(uint256 _amount) internal {\n        uint256 remainingLiquidityToUse = _amount;\n        uint256 i;\n        while (remainingLiquidityToUse > 0 && i < currentLenders.length) {\n            address lenderAddress = currentLenders[i];\n            // We calculate how much is unused=usable for this lender\n            uint256 usable = lendingBalanceOf[lenderAddress].total -\n                lendingBalanceOf[lenderAddress].used;\n\n            if (usable > 0) {\n                uint256 amountToUse = min(usable, remainingLiquidityToUse);\n                lendingBalanceOf[lenderAddress].used += amountToUse;\n                remainingLiquidityToUse -= amountToUse;\n            }\n            i += 1;\n        }\n        require(remainingLiquidityToUse == 0, \"Not enough liquidity to use.\");\n    }\n\n    function _findUsedCTokensAndUnuse(uint256 _amount) internal {\n        uint256 remainingLiquidityToUnuse = _amount;\n        uint256 i = currentLenders.length;\n        while (remainingLiquidityToUnuse > 0 && i < currentLenders.length) {\n            address lenderAddress = currentLenders[i];\n            // We calculate how much is used=unusable for this lender\n            uint256 unusable = lendingBalanceOf[lenderAddress].used;\n\n            if (unusable > 0) {\n                uint256 amountToUnuse = min(\n                    unusable,\n                    remainingLiquidityToUnuse\n                );\n                lendingBalanceOf[lenderAddress].used -= amountToUnuse;\n                remainingLiquidityToUnuse -= amountToUnuse;\n            }\n            i += 1;\n        }\n        require(\n            remainingLiquidityToUnuse == 0,\n            \"Not enough liquidity to unuse.\"\n        );\n    }\n\n    function min(uint256 a, uint256 b) internal pure returns (uint256) {\n        return a < b ? a : b;\n    }\n}\n",
  "sourcePath": "/Users/merlinegalite/Desktop/HackMoney/symbioz-contracts/contracts/CompoundModule.sol",
  "compiler": {
    "name": "solc",
    "version": "0.6.6+commit.6c089d02.Linux.g++"
  },
  "schemaVersion": "3.3.4",
  "updatedAt": "2021-06-30T08:44:29.758Z",
  "networkType": "ethereum",
  "devdoc": {
    "methods": {}
  },
  "userdoc": {
    "methods": {}
  }
}