{
  "contractName": "CompoundModule",
  "abi": [
    {
      "anonymous": false,
      "inputs": [
        {
          "indexed": false,
          "internalType": "string",
          "name": "",
          "type": "string"
        },
        {
          "indexed": false,
          "internalType": "uint256",
          "name": "",
          "type": "uint256"
        }
      ],
      "name": "MyLog",
      "type": "event"
    },
    {
      "stateMutability": "payable",
      "type": "fallback",
      "payable": true
    },
    {
      "inputs": [],
      "name": "CDAI_ADDRESS",
      "outputs": [
        {
          "internalType": "address payable",
          "name": "",
          "type": "address"
        }
      ],
      "stateMutability": "view",
      "type": "function",
      "constant": true
    },
    {
      "inputs": [],
      "name": "CETH_ADDRESS",
      "outputs": [
        {
          "internalType": "address payable",
          "name": "",
          "type": "address"
        }
      ],
      "stateMutability": "view",
      "type": "function",
      "constant": true
    },
    {
      "inputs": [],
      "name": "COLLATERAL_FACTOR",
      "outputs": [
        {
          "internalType": "uint256",
          "name": "",
          "type": "uint256"
        }
      ],
      "stateMutability": "view",
      "type": "function",
      "constant": true
    },
    {
      "inputs": [],
      "name": "DAI_ADDRESS",
      "outputs": [
        {
          "internalType": "address",
          "name": "",
          "type": "address"
        }
      ],
      "stateMutability": "view",
      "type": "function",
      "constant": true
    },
    {
      "inputs": [],
      "name": "DENOMINATOR",
      "outputs": [
        {
          "internalType": "uint256",
          "name": "",
          "type": "uint256"
        }
      ],
      "stateMutability": "view",
      "type": "function",
      "constant": true
    },
    {
      "inputs": [],
      "name": "ORACLE_ADDRESS",
      "outputs": [
        {
          "internalType": "address",
          "name": "",
          "type": "address"
        }
      ],
      "stateMutability": "view",
      "type": "function",
      "constant": true
    },
    {
      "inputs": [],
      "name": "WETH_ADDRESS",
      "outputs": [
        {
          "internalType": "address",
          "name": "",
          "type": "address"
        }
      ],
      "stateMutability": "view",
      "type": "function",
      "constant": true
    },
    {
      "inputs": [
        {
          "internalType": "address",
          "name": "",
          "type": "address"
        }
      ],
      "name": "borrowingBalanceOf",
      "outputs": [
        {
          "internalType": "uint256",
          "name": "",
          "type": "uint256"
        }
      ],
      "stateMutability": "view",
      "type": "function",
      "constant": true
    },
    {
      "inputs": [],
      "name": "cDaiToken",
      "outputs": [
        {
          "internalType": "contract ICErc20",
          "name": "",
          "type": "address"
        }
      ],
      "stateMutability": "view",
      "type": "function",
      "constant": true
    },
    {
      "inputs": [],
      "name": "cEthToken",
      "outputs": [
        {
          "internalType": "contract ICEth",
          "name": "",
          "type": "address"
        }
      ],
      "stateMutability": "view",
      "type": "function",
      "constant": true
    },
    {
      "inputs": [
        {
          "internalType": "address",
          "name": "",
          "type": "address"
        }
      ],
      "name": "collateralBalanceOf",
      "outputs": [
        {
          "internalType": "uint256",
          "name": "total",
          "type": "uint256"
        },
        {
          "internalType": "uint256",
          "name": "used",
          "type": "uint256"
        }
      ],
      "stateMutability": "view",
      "type": "function",
      "constant": true
    },
    {
      "inputs": [
        {
          "internalType": "uint256",
          "name": "",
          "type": "uint256"
        }
      ],
      "name": "currentLenders",
      "outputs": [
        {
          "internalType": "address",
          "name": "",
          "type": "address"
        }
      ],
      "stateMutability": "view",
      "type": "function",
      "constant": true
    },
    {
      "inputs": [],
      "name": "daiToken",
      "outputs": [
        {
          "internalType": "contract IERC20",
          "name": "",
          "type": "address"
        }
      ],
      "stateMutability": "view",
      "type": "function",
      "constant": true
    },
    {
      "inputs": [
        {
          "internalType": "address",
          "name": "",
          "type": "address"
        }
      ],
      "name": "lenderToIndex",
      "outputs": [
        {
          "internalType": "uint256",
          "name": "",
          "type": "uint256"
        }
      ],
      "stateMutability": "view",
      "type": "function",
      "constant": true
    },
    {
      "inputs": [
        {
          "internalType": "address",
          "name": "",
          "type": "address"
        }
      ],
      "name": "lendingBalanceOf",
      "outputs": [
        {
          "internalType": "uint256",
          "name": "total",
          "type": "uint256"
        },
        {
          "internalType": "uint256",
          "name": "used",
          "type": "uint256"
        }
      ],
      "stateMutability": "view",
      "type": "function",
      "constant": true
    },
    {
      "inputs": [],
      "name": "oracle",
      "outputs": [
        {
          "internalType": "contract IOracle",
          "name": "",
          "type": "address"
        }
      ],
      "stateMutability": "view",
      "type": "function",
      "constant": true
    },
    {
      "inputs": [],
      "name": "lend",
      "outputs": [],
      "stateMutability": "payable",
      "type": "function",
      "payable": true
    },
    {
      "inputs": [
        {
          "internalType": "uint256",
          "name": "_amount",
          "type": "uint256"
        }
      ],
      "name": "borrow",
      "outputs": [],
      "stateMutability": "nonpayable",
      "type": "function"
    },
    {
      "inputs": [],
      "name": "payBackAll",
      "outputs": [],
      "stateMutability": "payable",
      "type": "function",
      "payable": true
    },
    {
      "inputs": [
        {
          "internalType": "uint256",
          "name": "_amount",
          "type": "uint256"
        }
      ],
      "name": "cashOut",
      "outputs": [],
      "stateMutability": "nonpayable",
      "type": "function"
    },
    {
      "inputs": [
        {
          "internalType": "uint256",
          "name": "_amount",
          "type": "uint256"
        }
      ],
      "name": "provideCollateral",
      "outputs": [],
      "stateMutability": "payable",
      "type": "function",
      "payable": true
    },
    {
      "inputs": [
        {
          "internalType": "uint256",
          "name": "_amount",
          "type": "uint256"
        }
      ],
      "name": "redeemCollateral",
      "outputs": [],
      "stateMutability": "nonpayable",
      "type": "function"
    },
    {
      "inputs": [
        {
          "internalType": "address",
          "name": "_borrower",
          "type": "address"
        }
      ],
      "name": "liquidate",
      "outputs": [],
      "stateMutability": "nonpayable",
      "type": "function"
    },
    {
      "inputs": [
        {
          "internalType": "uint256",
          "name": "_amount",
          "type": "uint256"
        }
      ],
      "name": "_supplyEthToCompound",
      "outputs": [],
      "stateMutability": "nonpayable",
      "type": "function"
    }
  ],
  "bytecode": "0x6080604052734ddc2d193948926d02f9b1fe9e1daa0718270ed5600560006101000a81548173ffffffffffffffffffffffffffffffffffffffff021916908373ffffffffffffffffffffffffffffffffffffffff160217905550735d3a536e4d6dbd6114cc1ead35777bab948e3643600660006101000a81548173ffffffffffffffffffffffffffffffffffffffff021916908373ffffffffffffffffffffffffffffffffffffffff160217905550736b175474e89094c44da98b954eedeac495271d0f600760006101000a81548173ffffffffffffffffffffffffffffffffffffffff021916908373ffffffffffffffffffffffffffffffffffffffff160217905550735d3a536e4d6dbd6114cc1ead35777bab948e3643600860006101000a81548173ffffffffffffffffffffffffffffffffffffffff021916908373ffffffffffffffffffffffffffffffffffffffff16021790555034801561016457600080fd5b50612b47806101746000396000f3fe60806040526004361061016c576000357c01000000000000000000000000000000000000000000000000000000009004806397dffc61116100d3578063d50385271161008c578063d5038527146106c6578063e1a607fa1461072b578063ee28cce0146107a6578063f0c3c06b146107e1578063f41041391461080f578063fcfc430c146108195761016d565b806397dffc611461052c578063ba266b1314610536578063bd37b7751461058d578063be22f546146105c8578063c5ebeaec1461061f578063c964a2f21461065a5761016d565b80634ab45d33116101255780634ab45d331461035c5780635af6f411146103b35780635c7b79f5146104185780637cd3d2cd146104535780637dc0d1d0146104aa578063918f8674146105015761016d565b8063040141e51461016f5780630531b2ad146101c657806317f49e051461021d5780632787d032146102485780632a4c0a1a146102b45780632f8655681461030b5761016d565b5b005b34801561017b57600080fd5b50610184610870565b604051808273ffffffffffffffffffffffffffffffffffffffff1673ffffffffffffffffffffffffffffffffffffffff16815260200191505060405180910390f35b3480156101d257600080fd5b506101db610888565b604051808273ffffffffffffffffffffffffffffffffffffffff1673ffffffffffffffffffffffffffffffffffffffff16815260200191505060405180910390f35b34801561022957600080fd5b506102326108a0565b6040518082815260200191505060405180910390f35b34801561025457600080fd5b506102976004803603602081101561026b57600080fd5b81019080803573ffffffffffffffffffffffffffffffffffffffff1690602001909291905050506108a6565b604051808381526020018281526020019250505060405180910390f35b3480156102c057600080fd5b506102c96108ca565b604051808273ffffffffffffffffffffffffffffffffffffffff1673ffffffffffffffffffffffffffffffffffffffff16815260200191505060405180910390f35b34801561031757600080fd5b5061035a6004803603602081101561032e57600080fd5b81019080803573ffffffffffffffffffffffffffffffffffffffff1690602001909291905050506108e2565b005b34801561036857600080fd5b506103716108e5565b604051808273ffffffffffffffffffffffffffffffffffffffff1673ffffffffffffffffffffffffffffffffffffffff16815260200191505060405180910390f35b3480156103bf57600080fd5b50610402600480360360208110156103d657600080fd5b81019080803573ffffffffffffffffffffffffffffffffffffffff1690602001909291905050506108fd565b6040518082815260200191505060405180910390f35b34801561042457600080fd5b506104516004803603602081101561043b57600080fd5b8101908080359060200190929190505050610915565b005b34801561045f57600080fd5b50610468610992565b604051808273ffffffffffffffffffffffffffffffffffffffff1673ffffffffffffffffffffffffffffffffffffffff16815260200191505060405180910390f35b3480156104b657600080fd5b506104bf6109b8565b604051808273ffffffffffffffffffffffffffffffffffffffff1673ffffffffffffffffffffffffffffffffffffffff16815260200191505060405180910390f35b34801561050d57600080fd5b506105166109de565b6040518082815260200191505060405180910390f35b6105346109e4565b005b34801561054257600080fd5b5061054b610b35565b604051808273ffffffffffffffffffffffffffffffffffffffff1673ffffffffffffffffffffffffffffffffffffffff16815260200191505060405180910390f35b34801561059957600080fd5b506105c6600480360360208110156105b057600080fd5b8101908080359060200190929190505050610b5b565b005b3480156105d457600080fd5b506105dd610b68565b604051808273ffffffffffffffffffffffffffffffffffffffff1673ffffffffffffffffffffffffffffffffffffffff16815260200191505060405180910390f35b34801561062b57600080fd5b506106586004803603602081101561064257600080fd5b8101908080359060200190929190505050610b8e565b005b34801561066657600080fd5b506106a96004803603602081101561067d57600080fd5b81019080803573ffffffffffffffffffffffffffffffffffffffff16906020019092919050505061110a565b604051808381526020018281526020019250505060405180910390f35b3480156106d257600080fd5b50610715600480360360208110156106e957600080fd5b81019080803573ffffffffffffffffffffffffffffffffffffffff16906020019092919050505061112e565b6040518082815260200191505060405180910390f35b34801561073757600080fd5b506107646004803603602081101561074e57600080fd5b8101908080359060200190929190505050611146565b604051808273ffffffffffffffffffffffffffffffffffffffff1673ffffffffffffffffffffffffffffffffffffffff16815260200191505060405180910390f35b3480156107b257600080fd5b506107df600480360360208110156107c957600080fd5b8101908080359060200190929190505050611182565b005b61080d600480360360208110156107f757600080fd5b8101908080359060200190929190505050611294565b005b61081761159c565b005b34801561082557600080fd5b5061082e61186d565b604051808273ffffffffffffffffffffffffffffffffffffffff1673ffffffffffffffffffffffffffffffffffffffff16815260200191505060405180910390f35b73c02aaa39b223fe8d0a0e5c4f27ead9083c756cc281565b735d3a536e4d6dbd6114cc1ead35777bab948e364381565b61271081565b60006020528060005260406000206000915090508060000154908060010154905082565b736b175474e89094c44da98b954eedeac495271d0f81565b50565b734ddc2d193948926d02f9b1fe9e1daa0718270ed581565b60026020528060005260406000206000915090505481565b7f8d1cced004452bd270777a8c670f9f7e7c4fdde56f2db331fe289d39dc2624ad816040518080602001838152602001828103825260058152602001807f76616c75650000000000000000000000000000000000000000000000000000008152506020019250505060405180910390a161098f3382611885565b50565b600560009054906101000a900473ffffffffffffffffffffffffffffffffffffffff1681565b600860009054906101000a900473ffffffffffffffffffffffffffffffffffffffff1681565b61271081565b6109ed34611182565b60008060003373ffffffffffffffffffffffffffffffffffffffff1673ffffffffffffffffffffffffffffffffffffffff168152602001908152602001600020600001541415610ae457600480549050600360003373ffffffffffffffffffffffffffffffffffffffff1673ffffffffffffffffffffffffffffffffffffffff168152602001908152602001600020819055506004339080600181540180825580915050600190039060005260206000200160009091909190916101000a81548173ffffffffffffffffffffffffffffffffffffffff021916908373ffffffffffffffffffffffffffffffffffffffff1602179055505b346000803373ffffffffffffffffffffffffffffffffffffffff1673ffffffffffffffffffffffffffffffffffffffff16815260200190815260200160002060000160008282540192505081905550565b600660009054906101000a900473ffffffffffffffffffffffffffffffffffffffff1681565b610b653382611bd6565b50565b600760009054906101000a900473ffffffffffffffffffffffffffffffffffffffff1681565b6000600860009054906101000a900473ffffffffffffffffffffffffffffffffffffffff1673ffffffffffffffffffffffffffffffffffffffff16638c86f1e473c02aaa39b223fe8d0a0e5c4f27ead9083c756cc284736b175474e89094c44da98b954eedeac495271d0f6040518463ffffffff167c0100000000000000000000000000000000000000000000000000000000028152600401808473ffffffffffffffffffffffffffffffffffffffff1673ffffffffffffffffffffffffffffffffffffffff1681526020018381526020018273ffffffffffffffffffffffffffffffffffffffff1673ffffffffffffffffffffffffffffffffffffffff168152602001935050505060206040518083038186803b158015610caf57600080fd5b505afa158015610cc3573d6000803e3d6000fd5b505050506040513d6020811015610cd957600080fd5b810190808051906020019092919050505090506000600160003373ffffffffffffffffffffffffffffffffffffffff1673ffffffffffffffffffffffffffffffffffffffff16815260200190815260200160002060010154600160003373ffffffffffffffffffffffffffffffffffffffff1673ffffffffffffffffffffffffffffffffffffffff168152602001908152602001600020600001540390506000612710808481610d8557fe5b0402905081811115610dff576040517f08c379a00000000000000000000000000000000000000000000000000000000081526004018080602001828103825260168152602001807f4e6f7420656e6f75676820636f6c6c61746572616c2e0000000000000000000081525060200191505060405180910390fd5b6000600660009054906101000a900473ffffffffffffffffffffffffffffffffffffffff1673ffffffffffffffffffffffffffffffffffffffff1663bd6d894d6040518163ffffffff167c0100000000000000000000000000000000000000000000000000000000028152600401602060405180830381600087803b158015610e8757600080fd5b505af1158015610e9b573d6000803e3d6000fd5b505050506040513d6020811015610eb157600080fd5b8101908080519060200190929190505050600660009054906101000a900473ffffffffffffffffffffffffffffffffffffffff1673ffffffffffffffffffffffffffffffffffffffff166370a08231306040518263ffffffff167c0100000000000000000000000000000000000000000000000000000000028152600401808273ffffffffffffffffffffffffffffffffffffffff1673ffffffffffffffffffffffffffffffffffffffff168152602001915050602060405180830381600087803b158015610f7f57600080fd5b505af1158015610f93573d6000803e3d6000fd5b505050506040513d6020811015610fa957600080fd5b810190808051906020019092919050505002905080851115611016576040517f08c379a0000000000000000000000000000000000000000000000000000000008152600401808060200182810382526035815260200180612a506035913960400191505060405180910390fd5b61101f85611ee5565b81600160003373ffffffffffffffffffffffffffffffffffffffff1673ffffffffffffffffffffffffffffffffffffffff1681526020019081526020016000206001016000828254019250508190555084600260003373ffffffffffffffffffffffffffffffffffffffff1673ffffffffffffffffffffffffffffffffffffffff168152602001908152602001600020600082825401925050819055503373ffffffffffffffffffffffffffffffffffffffff166108fc869081150290604051600060405180830381858888f19350505050158015611102573d6000803e3d6000fd5b505050505050565b60016020528060005260406000206000915090508060000154908060010154905082565b60036020528060005260406000206000915090505481565b6004818154811061115357fe5b906000526020600020016000915054906101000a900473ffffffffffffffffffffffffffffffffffffffff1681565b7f8d1cced004452bd270777a8c670f9f7e7c4fdde56f2db331fe289d39dc2624ad816040518080602001838152602001828103825260058152602001807f76616c75650000000000000000000000000000000000000000000000000000008152506020019250505060405180910390a1600560009054906101000a900473ffffffffffffffffffffffffffffffffffffffff1673ffffffffffffffffffffffffffffffffffffffff16631249c58b826040518263ffffffff167c01000000000000000000000000000000000000000000000000000000000281526004016000604051808303818588803b15801561127857600080fd5b505af115801561128c573d6000803e3d6000fd5b505050505050565b6000811161130a576040517f08c379a00000000000000000000000000000000000000000000000000000000081526004018080602001828103825260128152602001807f416d6f756e742063616e6e6f742062652030000000000000000000000000000081525060200191505060405180910390fd5b600760009054906101000a900473ffffffffffffffffffffffffffffffffffffffff1673ffffffffffffffffffffffffffffffffffffffff1663095ea7b330836040518363ffffffff167c0100000000000000000000000000000000000000000000000000000000028152600401808373ffffffffffffffffffffffffffffffffffffffff1673ffffffffffffffffffffffffffffffffffffffff16815260200182815260200192505050602060405180830381600087803b1580156113cf57600080fd5b505af11580156113e3573d6000803e3d6000fd5b505050506040513d60208110156113f957600080fd5b810190808051906020019092919050505050600760009054906101000a900473ffffffffffffffffffffffffffffffffffffffff1673ffffffffffffffffffffffffffffffffffffffff166323b872dd3330346040518463ffffffff167c0100000000000000000000000000000000000000000000000000000000028152600401808473ffffffffffffffffffffffffffffffffffffffff1673ffffffffffffffffffffffffffffffffffffffff1681526020018373ffffffffffffffffffffffffffffffffffffffff1673ffffffffffffffffffffffffffffffffffffffff1681526020018281526020019350505050602060405180830381600087803b15801561150457600080fd5b505af1158015611518573d6000803e3d6000fd5b505050506040513d602081101561152e57600080fd5b810190808051906020019092919050505050611549816120c0565b80600160003373ffffffffffffffffffffffffffffffffffffffff1673ffffffffffffffffffffffffffffffffffffffff1681526020019081526020016000206000016000828254019250508190555050565b600260003373ffffffffffffffffffffffffffffffffffffffff1673ffffffffffffffffffffffffffffffffffffffff16815260200190815260200160002054341015611651576040517f08c379a000000000000000000000000000000000000000000000000000000000815260040180806020018281038252601a8152602001807f4d757374207061796261636b20616c6c2074686520646562742e00000000000081525060200191505060405180910390fd5b3073ffffffffffffffffffffffffffffffffffffffff166108fc349081150290604051600060405180830381858888f19350505050158015611697573d6000803e3d6000fd5b506116a134611182565b6116aa34612319565b6000600860009054906101000a900473ffffffffffffffffffffffffffffffffffffffff1673ffffffffffffffffffffffffffffffffffffffff16638c86f1e473c02aaa39b223fe8d0a0e5c4f27ead9083c756cc234736b175474e89094c44da98b954eedeac495271d0f6040518463ffffffff167c0100000000000000000000000000000000000000000000000000000000028152600401808473ffffffffffffffffffffffffffffffffffffffff1673ffffffffffffffffffffffffffffffffffffffff1681526020018381526020018273ffffffffffffffffffffffffffffffffffffffff1673ffffffffffffffffffffffffffffffffffffffff168152602001935050505060206040518083038186803b1580156117cb57600080fd5b505afa1580156117df573d6000803e3d6000fd5b505050506040513d60208110156117f557600080fd5b81019080805190602001909291905050509050600061271080838161181657fe5b040290506000600260003373ffffffffffffffffffffffffffffffffffffffff1673ffffffffffffffffffffffffffffffffffffffff168152602001908152602001600020819055506118693382611bd6565b5050565b735d3a536e4d6dbd6114cc1ead35777bab948e364381565b60008060008473ffffffffffffffffffffffffffffffffffffffff1673ffffffffffffffffffffffffffffffffffffffff1681526020019081526020016000206001015414156118de576118d982826124b9565b611b59565b6000600560009054906101000a900473ffffffffffffffffffffffffffffffffffffffff1673ffffffffffffffffffffffffffffffffffffffff166370a08231306040518263ffffffff167c0100000000000000000000000000000000000000000000000000000000028152600401808273ffffffffffffffffffffffffffffffffffffffff1673ffffffffffffffffffffffffffffffffffffffff168152602001915050602060405180830381600087803b15801561199d57600080fd5b505af11580156119b1573d6000803e3d6000fd5b505050506040513d60208110156119c757600080fd5b810190808051906020019092919050505011156119f6576119e781611ee5565b6119f182826124b9565b611b58565b600560009054906101000a900473ffffffffffffffffffffffffffffffffffffffff1673ffffffffffffffffffffffffffffffffffffffff1663c5ebeaec826040518263ffffffff167c010000000000000000000000000000000000000000000000000000000002815260040180828152602001915050602060405180830381600087803b158015611a8757600080fd5b505af1158015611a9b573d6000803e3d6000fd5b505050506040513d6020811015611ab157600080fd5b81019080805190602001909291905050505080600260008473ffffffffffffffffffffffffffffffffffffffff1673ffffffffffffffffffffffffffffffffffffffff168152602001908152602001600020600082825401925050819055508173ffffffffffffffffffffffffffffffffffffffff166108fc829081150290604051600060405180830381858888f19350505050158015611b56573d6000803e3d6000fd5b505b5b6004600360008473ffffffffffffffffffffffffffffffffffffffff1673ffffffffffffffffffffffffffffffffffffffff1681526020019081526020016000205481548110611ba557fe5b9060005260206000200160006101000a81549073ffffffffffffffffffffffffffffffffffffffff02191690555050565b6000600260008473ffffffffffffffffffffffffffffffffffffffff1673ffffffffffffffffffffffffffffffffffffffff1681526020019081526020016000205414611c6e576040517f08c379a0000000000000000000000000000000000000000000000000000000008152600401808060200182810382526035815260200180612add6035913960400191505060405180910390fd5b600160003373ffffffffffffffffffffffffffffffffffffffff1673ffffffffffffffffffffffffffffffffffffffff16815260200190815260200160002060000154811115611d01576040517f08c379a0000000000000000000000000000000000000000000000000000000008152600401808060200182810382526000815260200160200191505060405180910390fd5b6000611d0e8260006125f9565b14611d5c576040517f08c379a0000000000000000000000000000000000000000000000000000000008152600401808060200182810382526000815260200160200191505060405180910390fd5b80600160003373ffffffffffffffffffffffffffffffffffffffff1673ffffffffffffffffffffffffffffffffffffffff16815260200190815260200160002060000160008282540392505081905550600760009054906101000a900473ffffffffffffffffffffffffffffffffffffffff1673ffffffffffffffffffffffffffffffffffffffff166323b872dd3084846040518463ffffffff167c0100000000000000000000000000000000000000000000000000000000028152600401808473ffffffffffffffffffffffffffffffffffffffff1673ffffffffffffffffffffffffffffffffffffffff1681526020018373ffffffffffffffffffffffffffffffffffffffff1673ffffffffffffffffffffffffffffffffffffffff1681526020018281526020019350505050602060405180830381600087803b158015611ea557600080fd5b505af1158015611eb9573d6000803e3d6000fd5b505050506040513d6020811015611ecf57600080fd5b8101908080519060200190929190505050505050565b600081905060005b600082118015611f01575060048054905081105b1561204557600060048281548110611f1557fe5b9060005260206000200160009054906101000a900473ffffffffffffffffffffffffffffffffffffffff16905060008060008373ffffffffffffffffffffffffffffffffffffffff1673ffffffffffffffffffffffffffffffffffffffff168152602001908152602001600020600101546000808473ffffffffffffffffffffffffffffffffffffffff1673ffffffffffffffffffffffffffffffffffffffff168152602001908152602001600020600001540390506000811115612038576000611fe082866127b0565b9050806000808573ffffffffffffffffffffffffffffffffffffffff1673ffffffffffffffffffffffffffffffffffffffff168152602001908152602001600020600101600082825401925050819055508085039450505b6001830192505050611eed565b600082146120bb576040517f08c379a000000000000000000000000000000000000000000000000000000000815260040180806020018281038252601c8152602001807f4e6f7420656e6f756768206c697175696469747920746f207573652e0000000081525060200191505060405180910390fd5b505050565b600760009054906101000a900473ffffffffffffffffffffffffffffffffffffffff1673ffffffffffffffffffffffffffffffffffffffff1663095ea7b3735d3a536e4d6dbd6114cc1ead35777bab948e3643836040518363ffffffff167c0100000000000000000000000000000000000000000000000000000000028152600401808373ffffffffffffffffffffffffffffffffffffffff1673ffffffffffffffffffffffffffffffffffffffff16815260200182815260200192505050602060405180830381600087803b15801561219957600080fd5b505af11580156121ad573d6000803e3d6000fd5b505050506040513d60208110156121c357600080fd5b8101908080519060200190929190505050506000600660009054906101000a900473ffffffffffffffffffffffffffffffffffffffff1673ffffffffffffffffffffffffffffffffffffffff1663a0712d68836040518263ffffffff167c010000000000000000000000000000000000000000000000000000000002815260040180828152602001915050602060405180830381600087803b15801561226857600080fd5b505af115801561227c573d6000803e3d6000fd5b505050506040513d602081101561229257600080fd5b810190808051906020019092919050505014612316576040517f08c379a00000000000000000000000000000000000000000000000000000000081526004018080602001828103825260188152602001807f43616c6c20746f20436f6d706f756e64206661696c65642e000000000000000081525060200191505060405180910390fd5b50565b6000819050600060048054905090505b60008211801561233d575060048054905081105b1561243e5760006004828154811061235157fe5b9060005260206000200160009054906101000a900473ffffffffffffffffffffffffffffffffffffffff16905060008060008373ffffffffffffffffffffffffffffffffffffffff1673ffffffffffffffffffffffffffffffffffffffff16815260200190815260200160002060010154905060008111156124315760006123d982866127b0565b9050806000808573ffffffffffffffffffffffffffffffffffffffff1673ffffffffffffffffffffffffffffffffffffffff168152602001908152602001600020600101600082825403925050819055508085039450505b6001830192505050612329565b600082146124b4576040517f08c379a000000000000000000000000000000000000000000000000000000000815260040180806020018281038252601e8152602001807f4e6f7420656e6f756768206c697175696469747920746f20756e7573652e000081525060200191505060405180910390fd5b505050565b6000808373ffffffffffffffffffffffffffffffffffffffff1673ffffffffffffffffffffffffffffffffffffffff16815260200190815260200160002060000154811115612553576040517f08c379a0000000000000000000000000000000000000000000000000000000008152600401808060200182810382526034815260200180612aa96034913960400191505060405180910390fd5b806000808473ffffffffffffffffffffffffffffffffffffffff1673ffffffffffffffffffffffffffffffffffffffff168152602001908152602001600020600001600082825403925050819055506125ad8160006127c9565b508173ffffffffffffffffffffffffffffffffffffffff166108fc829081150290604051600060405180830381858888f193505050501580156125f4573d6000803e3d6000fd5b505050565b60006001151582151514156126db57600660009054906101000a900473ffffffffffffffffffffffffffffffffffffffff1673ffffffffffffffffffffffffffffffffffffffff1663db006a75846040518263ffffffff167c010000000000000000000000000000000000000000000000000000000002815260040180828152602001915050602060405180830381600087803b15801561269957600080fd5b505af11580156126ad573d6000803e3d6000fd5b505050506040513d60208110156126c357600080fd5b810190808051906020019092919050505090506127aa565b600660009054906101000a900473ffffffffffffffffffffffffffffffffffffffff1673ffffffffffffffffffffffffffffffffffffffff1663852a12e3846040518263ffffffff167c010000000000000000000000000000000000000000000000000000000002815260040180828152602001915050602060405180830381600087803b15801561276c57600080fd5b505af1158015612780573d6000803e3d6000fd5b505050506040513d602081101561279657600080fd5b810190808051906020019092919050505090505b92915050565b60008183106127bf57816127c1565b825b905092915050565b6000806001151583151514156128ac57600560009054906101000a900473ffffffffffffffffffffffffffffffffffffffff1673ffffffffffffffffffffffffffffffffffffffff1663db006a75856040518263ffffffff167c010000000000000000000000000000000000000000000000000000000002815260040180828152602001915050602060405180830381600087803b15801561286a57600080fd5b505af115801561287e573d6000803e3d6000fd5b505050506040513d602081101561289457600080fd5b8101908080519060200190929190505050905061297b565b600560009054906101000a900473ffffffffffffffffffffffffffffffffffffffff1673ffffffffffffffffffffffffffffffffffffffff1663852a12e3856040518263ffffffff167c010000000000000000000000000000000000000000000000000000000002815260040180828152602001915050602060405180830381600087803b15801561293d57600080fd5b505af1158015612951573d6000803e3d6000fd5b505050506040513d602081101561296757600080fd5b810190808051906020019092919050505090505b7f8d1cced004452bd270777a8c670f9f7e7c4fdde56f2db331fe289d39dc2624ad81604051808060200183815260200182810382526024815260200180612a85602491396040019250505060405180910390a160008114612a44576040517f08c379a00000000000000000000000000000000000000000000000000000000081526004018080602001828103825260128152602001807f72656465656d526573756c74206572726f72000000000000000000000000000081525060200191505060405180910390fd5b60019150509291505056fe416d6f756e7420746f20626f72726f772073686f756c64206265206c657373207468616e20746f74616c20617661696c61626c652e49662074686973206973206e6f7420302c2074686572652077617320616e206572726f7243616e6e6f742072656465656d206d6f7265207468616e20746865206c656e64696e6720616d6f756e742070726f76696465642e426f72726f77696e67206d75737420626520726570616964206265666f72652072656465656d696e6720636f6c6c61746572616c2ea26469706673582212202c35a58838e31be521e422e22d565b64d3bed0ff52a089012c01574301a4adf664736f6c63430006060033",
  "immutableReferences": {},
  "source": "pragma solidity >=0.6.6;\n\nimport \"./libraries/SafeMath.sol\";\n\nimport \"./interfaces/IERC20.sol\";\nimport \"./interfaces/IOracle.sol\";\nimport {ICErc20, ICEth} from \"./interfaces/ICompound.sol\";\n\ncontract CompoundModule {\n    using SafeMath for uint256;\n\n    event MyLog(string, uint256);\n\n    /* Structs */\n\n    struct Balance {\n        uint256 total;\n        uint256 used;\n    }\n\n\n    /* Storage */\n\n    mapping(address => Balance) public lendingBalanceOf; // Lending balance of user (ETH).\n    mapping(address => Balance) public collateralBalanceOf; // Collateral balance of user (ETH).\n    mapping(address => uint256) public borrowingBalanceOf; // Borrowing balance of user (DAI).\n    mapping(address => uint256) public lenderToIndex; // Position of the lender in the currentLenders list.\n    address[] public currentLenders; // Current lenders in the protocol.\n    uint256 public constant COLLATERAL_FACTOR = 10000; // Collateral factor in basis points 100% by default.\n    uint256 public constant DENOMINATOR = 10000; // Collateral factor in basis points.\n\n    address public constant WETH_ADDRESS =\n        0xC02aaA39b223FE8D0A0e5C4F27eAD9083C756Cc2;\n    address payable public constant CETH_ADDRESS =\n        payable(0x4Ddc2D193948926D02f9B1fE9e1daa0718270ED5);\n    address public constant DAI_ADDRESS =\n        0x6B175474E89094C44Da98b954EedeAC495271d0F;\n    address payable public constant CDAI_ADDRESS =\n        payable(0x5d3a536E4D6DbD6114cc1Ead35777bAB948E3643);\n    address public constant ORACLE_ADDRESS =\n        0x5d3a536E4D6DbD6114cc1Ead35777bAB948E3643;\n\n    ICEth public cEthToken = ICEth(CETH_ADDRESS);\n\n    ICErc20 public cDaiToken = ICErc20(CDAI_ADDRESS);\n    IERC20 public daiToken = IERC20(DAI_ADDRESS);\n    IOracle public oracle = IOracle(ORACLE_ADDRESS);\n\n    /* External */\n\n    function lend() external payable {\n        _supplyEthToCompound(msg.value);\n        if (lendingBalanceOf[msg.sender].total == 0) {\n            lenderToIndex[msg.sender] = currentLenders.length;\n            currentLenders.push(msg.sender);\n        }\n        lendingBalanceOf[msg.sender].total += msg.value;\n    }\n\n    function borrow(uint256 _amount) external {\n        // Verify that borrower has enough collateral\n        uint256 daiAmountEquivalentToEthAmount = oracle.consult(\n            WETH_ADDRESS,\n            _amount,\n            DAI_ADDRESS\n        );\n        uint256 unusedCollateral = collateralBalanceOf[msg.sender].total -\n            collateralBalanceOf[msg.sender].used;\n        uint256 collateralNeeded = (daiAmountEquivalentToEthAmount /\n            DENOMINATOR) * COLLATERAL_FACTOR;\n        require(collateralNeeded <= unusedCollateral, \"Not enough collateral.\");\n\n        // Check if contract has the cTokens for the borrowing\n        uint256 availableTokensToBorrow = cDaiToken.balanceOf(address(this)) *\n            cDaiToken.exchangeRateCurrent();\n        require(\n            _amount <= availableTokensToBorrow,\n            \"Amount to borrow should be less than total available.\"\n        );\n\n        // Now contract can take liquidity thanks to cTokens\n        _findUnusedCTokensAndUse(_amount);\n\n        // Update used collateral\n        collateralBalanceOf[msg.sender].used += collateralNeeded;\n        borrowingBalanceOf[msg.sender] += _amount;\n\n        // Transfer ETH to borrower\n        payable(msg.sender).transfer(_amount);\n    }\n\n    function payBackAll() external payable {\n        require(\n            msg.value >= borrowingBalanceOf[msg.sender],\n            \"Must payback all the debt.\"\n        );\n        payable(address(this)).transfer(msg.value);\n        _supplyEthToCompound(msg.value);\n        _findUsedCTokensAndUnuse(msg.value);\n        uint256 daiAmountEquivalentToEthAmount = oracle.consult(\n            WETH_ADDRESS,\n            msg.value,\n            DAI_ADDRESS\n        );\n        uint256 amountToRedeem = (daiAmountEquivalentToEthAmount /\n            DENOMINATOR) * COLLATERAL_FACTOR;\n        borrowingBalanceOf[msg.sender] = 0;\n        _redeemCollateral(msg.sender, amountToRedeem);\n    }\n\n    function cashOut(uint256 _amount) external {\n        emit MyLog(\"value\", _amount);\n        _cashOut(msg.sender, _amount);\n    }\n\n    function provideCollateral(uint256 _amount) external payable {\n        require(_amount > 0, \"Amount cannot be 0\");\n        daiToken.approve(address(this), _amount);\n        daiToken.transferFrom(msg.sender, address(this), msg.value);\n        _supplyDaiToCompound(_amount);\n        // We update the collateral balance of the sender.\n        collateralBalanceOf[msg.sender].total += _amount;\n    }\n\n    function redeemCollateral(uint256 _amount) external {\n        _redeemCollateral(msg.sender, _amount);\n    }\n\n    function liquidate(address _borrower) external {\n        // TODO: write function\n    }\n\n    /* Internal */\n\n    function _cashOut(address _lender, uint256 _amount) internal {\n\n        if (lendingBalanceOf[_lender].used == 0) {\n            _redeemLending(_lender, _amount);\n        } else if (cEthToken.balanceOf(address(this)) > 0) {\n            _findUnusedCTokensAndUse(_amount);\n            _redeemLending(_lender, _amount);\n        } else {\n            cEthToken.borrow(_amount);\n            borrowingBalanceOf[_lender] += _amount;\n            payable(_lender).transfer(_amount);\n        }\n        delete currentLenders[lenderToIndex[_lender]];\n    }\n\n    function _redeemCollateral(address _borrower, uint256 _amount) internal {\n        require(\n            borrowingBalanceOf[_borrower] == 0,\n            \"Borrowing must be repaid before redeeming collateral.\"\n        );\n        require(_amount <= collateralBalanceOf[msg.sender].total, \"\");\n        require(_redeemCDaiFromCompound(_amount, false) == 0, \"\");\n        collateralBalanceOf[msg.sender].total -= _amount;\n        daiToken.transferFrom(address(this), _borrower, _amount);\n    }\n\n    function _redeemLending(address _lender, uint256 _amount) internal { //amount in eth  \n        require(\n            _amount <= lendingBalanceOf[_lender].total,\n            \"Cannot redeem more than the lending amount provided.\"\n        );\n        lendingBalanceOf[_lender].total -= _amount;\n        _redeemCEthFromCompound(_amount, false); // false :we retrieve asset based on an amount of the asset\n        payable(_lender).transfer(_amount);\n    }\n\n    function _supplyEthToCompound(uint256 _amount) public {\n        emit MyLog(\"value\", _amount);\n        cEthToken.mint{value: _amount}(); // Revert on error.\n    }\n\n    function _supplyDaiToCompound(uint256 _amount) internal {\n        // Approve transfer on the ERC20 contract.\n        daiToken.approve(CDAI_ADDRESS, _amount);\n        // Mint cTokens.\n        require(cDaiToken.mint(_amount) == 0, \"Call to Compound failed.\");\n    }\n\n    function _redeemCDaiFromCompound(uint256 _amount, bool _redeemType)\n        internal\n        returns(uint256 result)\n    {\n        if (_redeemType == true) {\n            // Retrieve your asset based on a cToken amount\n            result = cDaiToken.redeem(_amount);\n        } else {\n            // Retrieve your asset based on an amount of the asset\n            result = cDaiToken.redeemUnderlying(_amount);\n        }\n    }\n\n    function _redeemCEthFromCompound(uint256 _amount, bool _redeemType)\n        internal \n        returns (bool)    \n        {\n\n        uint256 redeemResult;\n\n        if (_redeemType == true) {\n            // Retrieve your asset based on a cToken amount\n            redeemResult = cEthToken.redeem(_amount);\n        } else {\n            // Retrieve your asset based on an amount of the asset\n            redeemResult = cEthToken.redeemUnderlying(_amount);\n        }\n        emit MyLog(\"If this is not 0, there was an error\", redeemResult);\n        require(redeemResult == 0, \"redeemResult error\");\n\n        return true;\n    }\n    // This is needed to receive ETH when calling `redeemCEth`\n    fallback() external payable {}\n\n    function _findUnusedCTokensAndUse(uint256 _amount) internal {\n        uint256 remainingLiquidityToUse = _amount;\n        uint256 i;\n        while (remainingLiquidityToUse > 0 && i < currentLenders.length) {\n            address lenderAddress = currentLenders[i];\n            // We calculate how much is unused=usable for this lender\n            uint256 usable = lendingBalanceOf[lenderAddress].total -\n                lendingBalanceOf[lenderAddress].used;\n\n            if (usable > 0) {\n                uint256 amountToUse = min(usable, remainingLiquidityToUse);\n                lendingBalanceOf[lenderAddress].used += amountToUse;\n                remainingLiquidityToUse -= amountToUse;\n            }\n            i += 1;\n        }\n        require(remainingLiquidityToUse == 0, \"Not enough liquidity to use.\");\n    }\n\n    function _findUsedCTokensAndUnuse(uint256 _amount) internal {\n        uint256 remainingLiquidityToUnuse = _amount;\n        uint256 i = currentLenders.length;\n        while (remainingLiquidityToUnuse > 0 && i < currentLenders.length) {\n            address lenderAddress = currentLenders[i];\n            // We calculate how much is used=unusable for this lender\n            uint256 unusable = lendingBalanceOf[lenderAddress].used;\n\n            if (unusable > 0) {\n                uint256 amountToUnuse = min(\n                    unusable,\n                    remainingLiquidityToUnuse\n                );\n                lendingBalanceOf[lenderAddress].used -= amountToUnuse;\n                remainingLiquidityToUnuse -= amountToUnuse;\n            }\n            i += 1;\n        }\n        require(\n            remainingLiquidityToUnuse == 0,\n            \"Not enough liquidity to unuse.\"\n        );\n    }\n\n    function min(uint256 a, uint256 b) internal pure returns (uint256) {\n        return a < b ? a : b;\n    }\n\n}\n",
  "sourcePath": "/Users/paulframbot/leech-code/leech-contracts/contracts/CompoundModule.sol",
  "compiler": {
    "name": "solc",
    "version": "0.6.6+commit.6c089d02.Linux.g++"
  },
  "schemaVersion": "3.3.4",
  "updatedAt": "2021-06-30T23:26:52.060Z",
  "networkType": "ethereum",
  "devdoc": {
    "methods": {}
  },
  "userdoc": {
    "methods": {}
  }
}