{
  "contractName": "CompoundModule",
  "abi": [
    {
      "inputs": [],
      "name": "CDAI_ADDRESS",
      "outputs": [
        {
          "internalType": "address payable",
          "name": "",
          "type": "address"
        }
      ],
      "stateMutability": "view",
      "type": "function",
      "constant": true
    },
    {
      "inputs": [],
      "name": "CETH_ADDRESS",
      "outputs": [
        {
          "internalType": "address payable",
          "name": "",
          "type": "address"
        }
      ],
      "stateMutability": "view",
      "type": "function",
      "constant": true
    },
    {
      "inputs": [],
      "name": "COLLATERAL_FACTOR",
      "outputs": [
        {
          "internalType": "uint256",
          "name": "",
          "type": "uint256"
        }
      ],
      "stateMutability": "view",
      "type": "function",
      "constant": true
    },
    {
      "inputs": [],
      "name": "DAI_ADDRESS",
      "outputs": [
        {
          "internalType": "address",
          "name": "",
          "type": "address"
        }
      ],
      "stateMutability": "view",
      "type": "function",
      "constant": true
    },
    {
      "inputs": [],
      "name": "DENOMINATOR",
      "outputs": [
        {
          "internalType": "uint256",
          "name": "",
          "type": "uint256"
        }
      ],
      "stateMutability": "view",
      "type": "function",
      "constant": true
    },
    {
      "inputs": [],
      "name": "ORACLE_ADDRESS",
      "outputs": [
        {
          "internalType": "address",
          "name": "",
          "type": "address"
        }
      ],
      "stateMutability": "view",
      "type": "function",
      "constant": true
    },
    {
      "inputs": [],
      "name": "WETH_ADDRESS",
      "outputs": [
        {
          "internalType": "address",
          "name": "",
          "type": "address"
        }
      ],
      "stateMutability": "view",
      "type": "function",
      "constant": true
    },
    {
      "inputs": [
        {
          "internalType": "address",
          "name": "",
          "type": "address"
        }
      ],
      "name": "borrowingBalanceOf",
      "outputs": [
        {
          "internalType": "uint256",
          "name": "",
          "type": "uint256"
        }
      ],
      "stateMutability": "view",
      "type": "function",
      "constant": true
    },
    {
      "inputs": [],
      "name": "cDaiToken",
      "outputs": [
        {
          "internalType": "contract ICErc20",
          "name": "",
          "type": "address"
        }
      ],
      "stateMutability": "view",
      "type": "function",
      "constant": true
    },
    {
      "inputs": [],
      "name": "cEthToken",
      "outputs": [
        {
          "internalType": "contract ICEth",
          "name": "",
          "type": "address"
        }
      ],
      "stateMutability": "view",
      "type": "function",
      "constant": true
    },
    {
      "inputs": [
        {
          "internalType": "address",
          "name": "",
          "type": "address"
        }
      ],
      "name": "collateralBalanceOf",
      "outputs": [
        {
          "internalType": "uint256",
          "name": "total",
          "type": "uint256"
        },
        {
          "internalType": "uint256",
          "name": "used",
          "type": "uint256"
        }
      ],
      "stateMutability": "view",
      "type": "function",
      "constant": true
    },
    {
      "inputs": [
        {
          "internalType": "uint256",
          "name": "",
          "type": "uint256"
        }
      ],
      "name": "currentLenders",
      "outputs": [
        {
          "internalType": "address",
          "name": "",
          "type": "address"
        }
      ],
      "stateMutability": "view",
      "type": "function",
      "constant": true
    },
    {
      "inputs": [],
      "name": "daiToken",
      "outputs": [
        {
          "internalType": "contract IERC20",
          "name": "",
          "type": "address"
        }
      ],
      "stateMutability": "view",
      "type": "function",
      "constant": true
    },
    {
      "inputs": [
        {
          "internalType": "address",
          "name": "",
          "type": "address"
        }
      ],
      "name": "lenderToIndex",
      "outputs": [
        {
          "internalType": "uint256",
          "name": "",
          "type": "uint256"
        }
      ],
      "stateMutability": "view",
      "type": "function",
      "constant": true
    },
    {
      "inputs": [
        {
          "internalType": "address",
          "name": "",
          "type": "address"
        }
      ],
      "name": "lendingBalanceOf",
      "outputs": [
        {
          "internalType": "uint256",
          "name": "total",
          "type": "uint256"
        },
        {
          "internalType": "uint256",
          "name": "used",
          "type": "uint256"
        }
      ],
      "stateMutability": "view",
      "type": "function",
      "constant": true
    },
    {
      "inputs": [],
      "name": "oracle",
      "outputs": [
        {
          "internalType": "contract IOracle",
          "name": "",
          "type": "address"
        }
      ],
      "stateMutability": "view",
      "type": "function",
      "constant": true
    },
    {
      "inputs": [],
      "name": "lend",
      "outputs": [],
      "stateMutability": "payable",
      "type": "function",
      "payable": true
    },
    {
      "inputs": [
        {
          "internalType": "uint256",
          "name": "_amount",
          "type": "uint256"
        }
      ],
      "name": "borrow",
      "outputs": [],
      "stateMutability": "nonpayable",
      "type": "function"
    },
    {
      "inputs": [],
      "name": "payBackAll",
      "outputs": [],
      "stateMutability": "payable",
      "type": "function",
      "payable": true
    },
    {
      "inputs": [
        {
          "internalType": "uint256",
          "name": "_amount",
          "type": "uint256"
        }
      ],
      "name": "cashOut",
      "outputs": [],
      "stateMutability": "nonpayable",
      "type": "function"
    },
    {
      "inputs": [
        {
          "internalType": "uint256",
          "name": "_amount",
          "type": "uint256"
        }
      ],
      "name": "provideCollateral",
      "outputs": [],
      "stateMutability": "payable",
      "type": "function",
      "payable": true
    },
    {
      "inputs": [
        {
          "internalType": "address",
          "name": "_borrower",
          "type": "address"
        }
      ],
      "name": "liquidate",
      "outputs": [],
      "stateMutability": "nonpayable",
      "type": "function"
    }
  ],
  "bytecode": "0x6080604052734ddc2d193948926d02f9b1fe9e1daa0718270ed5600560006101000a81548173ffffffffffffffffffffffffffffffffffffffff021916908373ffffffffffffffffffffffffffffffffffffffff160217905550735d3a536e4d6dbd6114cc1ead35777bab948e3643600660006101000a81548173ffffffffffffffffffffffffffffffffffffffff021916908373ffffffffffffffffffffffffffffffffffffffff160217905550736b175474e89094c44da98b954eedeac495271d0f600760006101000a81548173ffffffffffffffffffffffffffffffffffffffff021916908373ffffffffffffffffffffffffffffffffffffffff160217905550735d3a536e4d6dbd6114cc1ead35777bab948e3643600860006101000a81548173ffffffffffffffffffffffffffffffffffffffff021916908373ffffffffffffffffffffffffffffffffffffffff16021790555034801561016457600080fd5b50612ba8806101746000396000f3fe608060405260043610610152576000357c010000000000000000000000000000000000000000000000000000000090048063918f8674116100c8578063c964a2f21161008c578063c964a2f214610607578063d503852714610673578063e1a607fa146106d8578063f0c3c06b14610753578063f410413914610781578063fcfc430c1461078b57610152565b8063918f8674146104e957806397dffc6114610514578063ba266b131461051e578063be22f54614610575578063c5ebeaec146105cc57610152565b80632f8655681161011a5780632f865568146102f35780634ab45d33146103445780635af6f4111461039b5780635c7b79f5146104005780637cd3d2cd1461043b5780637dc0d1d01461049257610152565b8063040141e5146101575780630531b2ad146101ae57806317f49e05146102055780632787d032146102305780632a4c0a1a1461029c575b600080fd5b34801561016357600080fd5b5061016c6107e2565b604051808273ffffffffffffffffffffffffffffffffffffffff1673ffffffffffffffffffffffffffffffffffffffff16815260200191505060405180910390f35b3480156101ba57600080fd5b506101c36107fa565b604051808273ffffffffffffffffffffffffffffffffffffffff1673ffffffffffffffffffffffffffffffffffffffff16815260200191505060405180910390f35b34801561021157600080fd5b5061021a610812565b6040518082815260200191505060405180910390f35b34801561023c57600080fd5b5061027f6004803603602081101561025357600080fd5b81019080803573ffffffffffffffffffffffffffffffffffffffff169060200190929190505050610818565b604051808381526020018281526020019250505060405180910390f35b3480156102a857600080fd5b506102b161083c565b604051808273ffffffffffffffffffffffffffffffffffffffff1673ffffffffffffffffffffffffffffffffffffffff16815260200191505060405180910390f35b3480156102ff57600080fd5b506103426004803603602081101561031657600080fd5b81019080803573ffffffffffffffffffffffffffffffffffffffff169060200190929190505050610854565b005b34801561035057600080fd5b50610359610857565b604051808273ffffffffffffffffffffffffffffffffffffffff1673ffffffffffffffffffffffffffffffffffffffff16815260200191505060405180910390f35b3480156103a757600080fd5b506103ea600480360360208110156103be57600080fd5b81019080803573ffffffffffffffffffffffffffffffffffffffff16906020019092919050505061086f565b6040518082815260200191505060405180910390f35b34801561040c57600080fd5b506104396004803603602081101561042357600080fd5b8101908080359060200190929190505050610887565b005b34801561044757600080fd5b50610450610894565b604051808273ffffffffffffffffffffffffffffffffffffffff1673ffffffffffffffffffffffffffffffffffffffff16815260200191505060405180910390f35b34801561049e57600080fd5b506104a76108ba565b604051808273ffffffffffffffffffffffffffffffffffffffff1673ffffffffffffffffffffffffffffffffffffffff16815260200191505060405180910390f35b3480156104f557600080fd5b506104fe6108e0565b6040518082815260200191505060405180910390f35b61051c6108e6565b005b34801561052a57600080fd5b50610533610a37565b604051808273ffffffffffffffffffffffffffffffffffffffff1673ffffffffffffffffffffffffffffffffffffffff16815260200191505060405180910390f35b34801561058157600080fd5b5061058a610a5d565b604051808273ffffffffffffffffffffffffffffffffffffffff1673ffffffffffffffffffffffffffffffffffffffff16815260200191505060405180910390f35b3480156105d857600080fd5b50610605600480360360208110156105ef57600080fd5b8101908080359060200190929190505050610a83565b005b34801561061357600080fd5b506106566004803603602081101561062a57600080fd5b81019080803573ffffffffffffffffffffffffffffffffffffffff169060200190929190505050611001565b604051808381526020018281526020019250505060405180910390f35b34801561067f57600080fd5b506106c26004803603602081101561069657600080fd5b81019080803573ffffffffffffffffffffffffffffffffffffffff169060200190929190505050611025565b6040518082815260200191505060405180910390f35b3480156106e457600080fd5b50610711600480360360208110156106fb57600080fd5b810190808035906020019092919050505061103d565b604051808273ffffffffffffffffffffffffffffffffffffffff1673ffffffffffffffffffffffffffffffffffffffff16815260200191505060405180910390f35b61077f6004803603602081101561076957600080fd5b8101908080359060200190929190505050611079565b005b610789611381565b005b34801561079757600080fd5b506107a0611654565b604051808273ffffffffffffffffffffffffffffffffffffffff1673ffffffffffffffffffffffffffffffffffffffff16815260200191505060405180910390f35b73c02aaa39b223fe8d0a0e5c4f27ead9083c756cc281565b735d3a536e4d6dbd6114cc1ead35777bab948e364381565b612ee081565b60006020528060005260406000206000915090508060000154908060010154905082565b736b175474e89094c44da98b954eedeac495271d0f81565b50565b734ddc2d193948926d02f9b1fe9e1daa0718270ed581565b60026020528060005260406000206000915090505481565b610891338261166c565b50565b600560009054906101000a900473ffffffffffffffffffffffffffffffffffffffff1681565b600860009054906101000a900473ffffffffffffffffffffffffffffffffffffffff1681565b61271081565b6108ef34611a5b565b60008060003373ffffffffffffffffffffffffffffffffffffffff1673ffffffffffffffffffffffffffffffffffffffff1681526020019081526020016000206000015414156109e657600480549050600360003373ffffffffffffffffffffffffffffffffffffffff1673ffffffffffffffffffffffffffffffffffffffff168152602001908152602001600020819055506004339080600181540180825580915050600190039060005260206000200160009091909190916101000a81548173ffffffffffffffffffffffffffffffffffffffff021916908373ffffffffffffffffffffffffffffffffffffffff1602179055505b346000803373ffffffffffffffffffffffffffffffffffffffff1673ffffffffffffffffffffffffffffffffffffffff16815260200190815260200160002060000160008282540192505081905550565b600660009054906101000a900473ffffffffffffffffffffffffffffffffffffffff1681565b600760009054906101000a900473ffffffffffffffffffffffffffffffffffffffff1681565b6000600860009054906101000a900473ffffffffffffffffffffffffffffffffffffffff1673ffffffffffffffffffffffffffffffffffffffff16638c86f1e473c02aaa39b223fe8d0a0e5c4f27ead9083c756cc284736b175474e89094c44da98b954eedeac495271d0f6040518463ffffffff167c0100000000000000000000000000000000000000000000000000000000028152600401808473ffffffffffffffffffffffffffffffffffffffff1673ffffffffffffffffffffffffffffffffffffffff1681526020018381526020018273ffffffffffffffffffffffffffffffffffffffff1673ffffffffffffffffffffffffffffffffffffffff168152602001935050505060206040518083038186803b158015610ba457600080fd5b505afa158015610bb8573d6000803e3d6000fd5b505050506040513d6020811015610bce57600080fd5b810190808051906020019092919050505090506000600160003373ffffffffffffffffffffffffffffffffffffffff1673ffffffffffffffffffffffffffffffffffffffff16815260200190815260200160002060010154600160003373ffffffffffffffffffffffffffffffffffffffff1673ffffffffffffffffffffffffffffffffffffffff168152602001908152602001600020600001540390506000612ee06127108481610c7c57fe5b0402905081811115610cf6576040517f08c379a00000000000000000000000000000000000000000000000000000000081526004018080602001828103825260168152602001807f4e6f7420656e6f75676820636f6c6c61746572616c2e0000000000000000000081525060200191505060405180910390fd5b6000600660009054906101000a900473ffffffffffffffffffffffffffffffffffffffff1673ffffffffffffffffffffffffffffffffffffffff1663bd6d894d6040518163ffffffff167c0100000000000000000000000000000000000000000000000000000000028152600401602060405180830381600087803b158015610d7e57600080fd5b505af1158015610d92573d6000803e3d6000fd5b505050506040513d6020811015610da857600080fd5b8101908080519060200190929190505050600660009054906101000a900473ffffffffffffffffffffffffffffffffffffffff1673ffffffffffffffffffffffffffffffffffffffff166370a08231306040518263ffffffff167c0100000000000000000000000000000000000000000000000000000000028152600401808273ffffffffffffffffffffffffffffffffffffffff1673ffffffffffffffffffffffffffffffffffffffff168152602001915050602060405180830381600087803b158015610e7657600080fd5b505af1158015610e8a573d6000803e3d6000fd5b505050506040513d6020811015610ea057600080fd5b810190808051906020019092919050505002905080851115610f0d576040517f08c379a0000000000000000000000000000000000000000000000000000000008152600401808060200182810382526035815260200180612ad56035913960400191505060405180910390fd5b610f1685611afd565b81600160003373ffffffffffffffffffffffffffffffffffffffff1673ffffffffffffffffffffffffffffffffffffffff1681526020019081526020016000206001016000828254019250508190555084600260003373ffffffffffffffffffffffffffffffffffffffff1673ffffffffffffffffffffffffffffffffffffffff168152602001908152602001600020600082825401925050819055503373ffffffffffffffffffffffffffffffffffffffff166108fc869081150290604051600060405180830381858888f19350505050158015610ff9573d6000803e3d6000fd5b505050505050565b60016020528060005260406000206000915090508060000154908060010154905082565b60036020528060005260406000206000915090505481565b6004818154811061104a57fe5b906000526020600020016000915054906101000a900473ffffffffffffffffffffffffffffffffffffffff1681565b600081116110ef576040517f08c379a00000000000000000000000000000000000000000000000000000000081526004018080602001828103825260128152602001807f416d6f756e742063616e6e6f742062652030000000000000000000000000000081525060200191505060405180910390fd5b600760009054906101000a900473ffffffffffffffffffffffffffffffffffffffff1673ffffffffffffffffffffffffffffffffffffffff1663095ea7b330836040518363ffffffff167c0100000000000000000000000000000000000000000000000000000000028152600401808373ffffffffffffffffffffffffffffffffffffffff1673ffffffffffffffffffffffffffffffffffffffff16815260200182815260200192505050602060405180830381600087803b1580156111b457600080fd5b505af11580156111c8573d6000803e3d6000fd5b505050506040513d60208110156111de57600080fd5b810190808051906020019092919050505050600760009054906101000a900473ffffffffffffffffffffffffffffffffffffffff1673ffffffffffffffffffffffffffffffffffffffff166323b872dd3330346040518463ffffffff167c0100000000000000000000000000000000000000000000000000000000028152600401808473ffffffffffffffffffffffffffffffffffffffff1673ffffffffffffffffffffffffffffffffffffffff1681526020018373ffffffffffffffffffffffffffffffffffffffff1673ffffffffffffffffffffffffffffffffffffffff1681526020018281526020019350505050602060405180830381600087803b1580156112e957600080fd5b505af11580156112fd573d6000803e3d6000fd5b505050506040513d602081101561131357600080fd5b81019080805190602001909291905050505061132e81611cd8565b80600160003373ffffffffffffffffffffffffffffffffffffffff1673ffffffffffffffffffffffffffffffffffffffff1681526020019081526020016000206000016000828254019250508190555050565b600260003373ffffffffffffffffffffffffffffffffffffffff1673ffffffffffffffffffffffffffffffffffffffff16815260200190815260200160002054341015611436576040517f08c379a000000000000000000000000000000000000000000000000000000000815260040180806020018281038252601a8152602001807f4d757374207061796261636b20616c6c2074686520646562742e00000000000081525060200191505060405180910390fd5b3073ffffffffffffffffffffffffffffffffffffffff166108fc349081150290604051600060405180830381858888f1935050505015801561147c573d6000803e3d6000fd5b5061148634611a5b565b61148f34611f31565b6000600860009054906101000a900473ffffffffffffffffffffffffffffffffffffffff1673ffffffffffffffffffffffffffffffffffffffff16638c86f1e473c02aaa39b223fe8d0a0e5c4f27ead9083c756cc234736b175474e89094c44da98b954eedeac495271d0f6040518463ffffffff167c0100000000000000000000000000000000000000000000000000000000028152600401808473ffffffffffffffffffffffffffffffffffffffff1673ffffffffffffffffffffffffffffffffffffffff1681526020018381526020018273ffffffffffffffffffffffffffffffffffffffff1673ffffffffffffffffffffffffffffffffffffffff168152602001935050505060206040518083038186803b1580156115b057600080fd5b505afa1580156115c4573d6000803e3d6000fd5b505050506040513d60208110156115da57600080fd5b810190808051906020019092919050505090506000612ee061271083816115fd57fe5b040290506000600260003373ffffffffffffffffffffffffffffffffffffffff1673ffffffffffffffffffffffffffffffffffffffff1681526020019081526020016000208190555061165033826120d1565b5050565b735d3a536e4d6dbd6114cc1ead35777bab948e364381565b60008060008473ffffffffffffffffffffffffffffffffffffffff1673ffffffffffffffffffffffffffffffffffffffff16815260200190815260200160002060010154141561171457806000808473ffffffffffffffffffffffffffffffffffffffff1673ffffffffffffffffffffffffffffffffffffffff1681526020019081526020016000206000016000828254039250508190555061170f3382612458565b6119de565b6000600560009054906101000a900473ffffffffffffffffffffffffffffffffffffffff1673ffffffffffffffffffffffffffffffffffffffff166370a08231306040518263ffffffff167c0100000000000000000000000000000000000000000000000000000000028152600401808273ffffffffffffffffffffffffffffffffffffffff1673ffffffffffffffffffffffffffffffffffffffff168152602001915050602060405180830381600087803b1580156117d357600080fd5b505af11580156117e7573d6000803e3d6000fd5b505050506040513d60208110156117fd57600080fd5b8101908080519060200190929190505050111561182c5761181d81611afd565b6118273382612458565b6119dd565b600560009054906101000a900473ffffffffffffffffffffffffffffffffffffffff1673ffffffffffffffffffffffffffffffffffffffff1663c5ebeaec826040518263ffffffff167c010000000000000000000000000000000000000000000000000000000002815260040180828152602001915050602060405180830381600087803b1580156118bd57600080fd5b505af11580156118d1573d6000803e3d6000fd5b505050506040513d60208110156118e757600080fd5b81019080805190602001909291905050505080600260008473ffffffffffffffffffffffffffffffffffffffff1673ffffffffffffffffffffffffffffffffffffffff16815260200190815260200160002060008282540192505081905550806000808473ffffffffffffffffffffffffffffffffffffffff1673ffffffffffffffffffffffffffffffffffffffff168152602001908152602001600020600001600082825403925050819055508173ffffffffffffffffffffffffffffffffffffffff166108fc829081150290604051600060405180830381858888f193505050501580156119db573d6000803e3d6000fd5b505b5b6004600360008473ffffffffffffffffffffffffffffffffffffffff1673ffffffffffffffffffffffffffffffffffffffff1681526020019081526020016000205481548110611a2a57fe5b9060005260206000200160006101000a81549073ffffffffffffffffffffffffffffffffffffffff02191690555050565b600560009054906101000a900473ffffffffffffffffffffffffffffffffffffffff1673ffffffffffffffffffffffffffffffffffffffff16631249c58b826040518263ffffffff167c01000000000000000000000000000000000000000000000000000000000281526004016000604051808303818588803b158015611ae157600080fd5b505af1158015611af5573d6000803e3d6000fd5b505050505050565b600081905060005b600082118015611b19575060048054905081105b15611c5d57600060048281548110611b2d57fe5b9060005260206000200160009054906101000a900473ffffffffffffffffffffffffffffffffffffffff16905060008060008373ffffffffffffffffffffffffffffffffffffffff1673ffffffffffffffffffffffffffffffffffffffff168152602001908152602001600020600101546000808473ffffffffffffffffffffffffffffffffffffffff1673ffffffffffffffffffffffffffffffffffffffff168152602001908152602001600020600001540390506000811115611c50576000611bf88286612660565b9050806000808573ffffffffffffffffffffffffffffffffffffffff1673ffffffffffffffffffffffffffffffffffffffff168152602001908152602001600020600101600082825401925050819055508085039450505b6001830192505050611b05565b60008214611cd3576040517f08c379a000000000000000000000000000000000000000000000000000000000815260040180806020018281038252601c8152602001807f4e6f7420656e6f756768206c697175696469747920746f207573652e0000000081525060200191505060405180910390fd5b505050565b600760009054906101000a900473ffffffffffffffffffffffffffffffffffffffff1673ffffffffffffffffffffffffffffffffffffffff1663095ea7b3735d3a536e4d6dbd6114cc1ead35777bab948e3643836040518363ffffffff167c0100000000000000000000000000000000000000000000000000000000028152600401808373ffffffffffffffffffffffffffffffffffffffff1673ffffffffffffffffffffffffffffffffffffffff16815260200182815260200192505050602060405180830381600087803b158015611db157600080fd5b505af1158015611dc5573d6000803e3d6000fd5b505050506040513d6020811015611ddb57600080fd5b8101908080519060200190929190505050506000600660009054906101000a900473ffffffffffffffffffffffffffffffffffffffff1673ffffffffffffffffffffffffffffffffffffffff1663a0712d68836040518263ffffffff167c010000000000000000000000000000000000000000000000000000000002815260040180828152602001915050602060405180830381600087803b158015611e8057600080fd5b505af1158015611e94573d6000803e3d6000fd5b505050506040513d6020811015611eaa57600080fd5b810190808051906020019092919050505014611f2e576040517f08c379a00000000000000000000000000000000000000000000000000000000081526004018080602001828103825260188152602001807f43616c6c20746f20436f6d706f756e64206661696c65642e000000000000000081525060200191505060405180910390fd5b50565b6000819050600060048054905090505b600082118015611f55575060048054905081105b1561205657600060048281548110611f6957fe5b9060005260206000200160009054906101000a900473ffffffffffffffffffffffffffffffffffffffff16905060008060008373ffffffffffffffffffffffffffffffffffffffff1673ffffffffffffffffffffffffffffffffffffffff1681526020019081526020016000206001015490506000811115612049576000611ff18286612660565b9050806000808573ffffffffffffffffffffffffffffffffffffffff1673ffffffffffffffffffffffffffffffffffffffff168152602001908152602001600020600101600082825403925050819055508085039450505b6001830192505050611f41565b600082146120cc576040517f08c379a000000000000000000000000000000000000000000000000000000000815260040180806020018281038252601e8152602001807f4e6f7420656e6f756768206c697175696469747920746f20756e7573652e000081525060200191505060405180910390fd5b505050565b6000600260008473ffffffffffffffffffffffffffffffffffffffff1673ffffffffffffffffffffffffffffffffffffffff1681526020019081526020016000205414612169576040517f08c379a0000000000000000000000000000000000000000000000000000000008152600401808060200182810382526035815260200180612b3e6035913960400191505060405180910390fd5b600160003373ffffffffffffffffffffffffffffffffffffffff1673ffffffffffffffffffffffffffffffffffffffff168152602001908152602001600020600001548111156121fc576040517f08c379a0000000000000000000000000000000000000000000000000000000008152600401808060200182810382526000815260200160200191505060405180910390fd5b612207816000612679565b6000600660009054906101000a900473ffffffffffffffffffffffffffffffffffffffff1673ffffffffffffffffffffffffffffffffffffffff1663bd6d894d6040518163ffffffff167c0100000000000000000000000000000000000000000000000000000000028152600401602060405180830381600087803b15801561228f57600080fd5b505af11580156122a3573d6000803e3d6000fd5b505050506040513d60208110156122b957600080fd5b81019080805190602001909291905050508202905081600160003373ffffffffffffffffffffffffffffffffffffffff1673ffffffffffffffffffffffffffffffffffffffff16815260200190815260200160002060000160008282540392505081905550600760009054906101000a900473ffffffffffffffffffffffffffffffffffffffff1673ffffffffffffffffffffffffffffffffffffffff166323b872dd3085846040518463ffffffff167c0100000000000000000000000000000000000000000000000000000000028152600401808473ffffffffffffffffffffffffffffffffffffffff1673ffffffffffffffffffffffffffffffffffffffff1681526020018373ffffffffffffffffffffffffffffffffffffffff1673ffffffffffffffffffffffffffffffffffffffff1681526020018281526020019350505050602060405180830381600087803b15801561241757600080fd5b505af115801561242b573d6000803e3d6000fd5b505050506040513d602081101561244157600080fd5b810190808051906020019092919050505050505050565b6000803373ffffffffffffffffffffffffffffffffffffffff1673ffffffffffffffffffffffffffffffffffffffff168152602001908152602001600020600001548111156124f2576040517f08c379a0000000000000000000000000000000000000000000000000000000008152600401808060200182810382526034815260200180612b0a6034913960400191505060405180910390fd5b6124fd8160006128a5565b506000600560009054906101000a900473ffffffffffffffffffffffffffffffffffffffff1673ffffffffffffffffffffffffffffffffffffffff1663bd6d894d6040518163ffffffff167c0100000000000000000000000000000000000000000000000000000000028152600401602060405180830381600087803b15801561258657600080fd5b505af115801561259a573d6000803e3d6000fd5b505050506040513d60208110156125b057600080fd5b810190808051906020019092919050505082029050816000803373ffffffffffffffffffffffffffffffffffffffff1673ffffffffffffffffffffffffffffffffffffffff168152602001908152602001600020600001600082825403925050819055508273ffffffffffffffffffffffffffffffffffffffff166108fc829081150290604051600060405180830381858888f1935050505015801561265a573d6000803e3d6000fd5b50505050565b600081831061266f5781612671565b825b905092915050565b600060011515821515141561275b57600660009054906101000a900473ffffffffffffffffffffffffffffffffffffffff1673ffffffffffffffffffffffffffffffffffffffff1663db006a75846040518263ffffffff167c010000000000000000000000000000000000000000000000000000000002815260040180828152602001915050602060405180830381600087803b15801561271957600080fd5b505af115801561272d573d6000803e3d6000fd5b505050506040513d602081101561274357600080fd5b8101908080519060200190929190505050905061282a565b600660009054906101000a900473ffffffffffffffffffffffffffffffffffffffff1673ffffffffffffffffffffffffffffffffffffffff1663852a12e3846040518263ffffffff167c010000000000000000000000000000000000000000000000000000000002815260040180828152602001915050602060405180830381600087803b1580156127ec57600080fd5b505af1158015612800573d6000803e3d6000fd5b505050506040513d602081101561281657600080fd5b810190808051906020019092919050505090505b600081146128a0576040517f08c379a00000000000000000000000000000000000000000000000000000000081526004018080602001828103825260188152602001807f43616c6c20746f20436f6d706f756e64206661696c65642e000000000000000081525060200191505060405180910390fd5b505050565b60008060011515831515141561298857600560009054906101000a900473ffffffffffffffffffffffffffffffffffffffff1673ffffffffffffffffffffffffffffffffffffffff1663db006a75856040518263ffffffff167c010000000000000000000000000000000000000000000000000000000002815260040180828152602001915050602060405180830381600087803b15801561294657600080fd5b505af115801561295a573d6000803e3d6000fd5b505050506040513d602081101561297057600080fd5b81019080805190602001909291905050509050612a57565b600560009054906101000a900473ffffffffffffffffffffffffffffffffffffffff1673ffffffffffffffffffffffffffffffffffffffff1663852a12e3856040518263ffffffff167c010000000000000000000000000000000000000000000000000000000002815260040180828152602001915050602060405180830381600087803b158015612a1957600080fd5b505af1158015612a2d573d6000803e3d6000fd5b505050506040513d6020811015612a4357600080fd5b810190808051906020019092919050505090505b60008114612acd576040517f08c379a00000000000000000000000000000000000000000000000000000000081526004018080602001828103825260188152602001807f43616c6c20746f20436f6d706f756e64206661696c65642e000000000000000081525060200191505060405180910390fd5b509291505056fe416d6f756e7420746f20626f72726f772073686f756c64206265206c657373207468616e20746f74616c20617661696c61626c652e43616e6e6f742072656465656d206d6f7265207468616e20746865206c656e64696e6720616d6f756e742070726f76696465642e426f72726f77696e67206d75737420626520726570616964206265666f72652072656465656d696e6720636f6c6c61746572616c2ea26469706673582212202f79b76c548baddfcb583b6a66b7ee68daeca28ff5af5334e165035ea92bade664736f6c63430006060033",
  "immutableReferences": {},
  "source": "pragma solidity >= 0.6.6;\n\nimport \"./libraries/SafeMath.sol\";\n\nimport \"./interfaces/IERC20.sol\";\nimport \"./interfaces/IOracle.sol\";\nimport {ICErc20, ICEth} from \"./interfaces/ICompound.sol\";\n\ncontract CompoundModule {\n    using SafeMath for uint256;\n\n    /* Structs */\n\n    struct Balance {\n        uint256 total;\n        uint256 used;\n    }\n\n    /* Storage */\n\n    mapping(address => Balance) public lendingBalanceOf; // Lending balance of user (ETH).\n    mapping(address => Balance) public collateralBalanceOf; // Collateral balance of user (ETH).\n    mapping(address => uint256) public borrowingBalanceOf; // Borrowing balance of user (DAI).\n    mapping(address => uint256) public lenderToIndex; // Position of the lender in the currentLenders list.\n    address[] public currentLenders; // Current lenders in the protocol.\n    uint256 constant public COLLATERAL_FACTOR = 12000; // Collateral factor in basis points 120% by default.\n    uint256 constant public DENOMINATOR = 10000; // Collateral factor in basis points.\n\n    address constant public WETH_ADDRESS = 0xC02aaA39b223FE8D0A0e5C4F27eAD9083C756Cc2;\n    address payable constant public CETH_ADDRESS =\n        payable(0x4Ddc2D193948926D02f9B1fE9e1daa0718270ED5);\n    address constant public DAI_ADDRESS = 0x6B175474E89094C44Da98b954EedeAC495271d0F;\n    address payable constant public CDAI_ADDRESS =\n        payable(0x5d3a536E4D6DbD6114cc1Ead35777bAB948E3643);\n    address constant public ORACLE_ADDRESS = 0x5d3a536E4D6DbD6114cc1Ead35777bAB948E3643;\n\n    ICEth public cEthToken = ICEth(CETH_ADDRESS);\n    ICErc20 public cDaiToken = ICErc20(CDAI_ADDRESS);\n    IERC20 public daiToken = IERC20(DAI_ADDRESS);\n    IOracle public oracle = IOracle(ORACLE_ADDRESS);\n\n    /* External */\n\n    function lend() external payable {\n        _supplyEthToCompound(msg.value);\n        if (lendingBalanceOf[msg.sender].total == 0) {\n            lenderToIndex[msg.sender] = currentLenders.length;\n            currentLenders.push(msg.sender);\n        }\n        lendingBalanceOf[msg.sender].total += msg.value;\n    }\n\n    function borrow(uint256 _amount) external {\n        // Verify that borrower has enough collateral\n        uint256 daiAmountEquivalentToEthAmount = oracle.consult(WETH_ADDRESS, _amount, DAI_ADDRESS);\n        uint256 unusedCollateral = collateralBalanceOf[msg.sender].total -\n            collateralBalanceOf[msg.sender].used;\n        uint256 collateralNeeded = (daiAmountEquivalentToEthAmount / DENOMINATOR) *\n            COLLATERAL_FACTOR;\n        require(collateralNeeded <= unusedCollateral, \"Not enough collateral.\");\n\n        // Check if contract has the cTokens for the borrowing\n        uint256 availableTokensToBorrow = cDaiToken.balanceOf(address(this)) *\n            cDaiToken.exchangeRateCurrent();\n        require(_amount <= availableTokensToBorrow, \"Amount to borrow should be less than total available.\");\n\n        // Now contract can take liquidity thanks to cTokens\n        _findUnusedCTokensAndUse(_amount);\n\n        // Update used collateral\n        collateralBalanceOf[msg.sender].used += collateralNeeded;\n        borrowingBalanceOf[msg.sender] += _amount;\n\n        // Transfer ETH to borrower\n        payable(msg.sender).transfer(_amount);\n    }\n\n    function payBackAll() external payable {\n        require(\n            msg.value >= borrowingBalanceOf[msg.sender],\n            \"Must payback all the debt.\"\n        );\n        payable(address(this)).transfer(msg.value);\n        _supplyEthToCompound(msg.value);\n        _findUsedCTokensAndUnuse(msg.value);\n        uint256 daiAmountEquivalentToEthAmount = oracle.consult(WETH_ADDRESS, msg.value, DAI_ADDRESS); // This is the equivalent amount to repay in DAI\n        uint256 amountToRedeem = (daiAmountEquivalentToEthAmount / DENOMINATOR) *\n            COLLATERAL_FACTOR;\n        borrowingBalanceOf[msg.sender] = 0;\n        _redeemCollateral(msg.sender, amountToRedeem);\n    }\n\n    function cashOut(uint256 _amount) external {\n        _cashOut(msg.sender, _amount);\n    }\n\n    function provideCollateral(uint256 _amount) external payable {\n        require(_amount > 0, \"Amount cannot be 0\");\n        daiToken.approve(address(this), _amount);\n        daiToken.transferFrom(msg.sender, address(this), msg.value);\n        _supplyDaiToCompound(_amount);\n        // We update the collateral balance of the sender.\n        collateralBalanceOf[msg.sender].total += _amount;\n    }\n\n    // function redeemAllCollateral() external {\n    //     uint amountToRedeem = collateralBalanceOf[msg.sender].total;\n    //     _redeemCollateral(msg.sender, amountToRedeem);\n    // }\n\n    function liquidate(address _borrower) external {\n        // TODO: write function\n    }\n\n    /* Internal */\n\n    function _cashOut(address _lender, uint256 _amount) internal {\n        if (lendingBalanceOf[_lender].used == 0) {\n            lendingBalanceOf[_lender].total -= _amount;\n            _redeemLending(msg.sender, _amount);\n        } else if (cEthToken.balanceOf(address(this)) > 0) {\n            _findUnusedCTokensAndUse(_amount);\n            _redeemLending(msg.sender, _amount);\n        } else {\n            cEthToken.borrow(_amount);\n            borrowingBalanceOf[_lender] += _amount;\n            lendingBalanceOf[_lender].total -= _amount;\n            payable(_lender).transfer(_amount);\n        }\n        delete currentLenders[lenderToIndex[_lender]];\n    }\n\n    function _redeemCollateral(address _borrower, uint256 _amount) internal {\n        require(\n            borrowingBalanceOf[_borrower] == 0,\n            \"Borrowing must be repaid before redeeming collateral.\"\n        );\n        require(_amount <= collateralBalanceOf[msg.sender].total, \"\");\n        _redeemCDaiFromCompound(_amount, false);\n        // Amount of Tokens given by Compound calculation\n        uint256 amountRedeemed = _amount * cDaiToken.exchangeRateCurrent();\n        collateralBalanceOf[msg.sender].total -= _amount;\n        // Finally leech transfers it to the user\n        daiToken.transferFrom(address(this), _borrower, amountRedeemed);\n    }\n\n    function _redeemLending(address _lender, uint256 _amount) internal {\n        require(_amount <= lendingBalanceOf[msg.sender].total, \"Cannot redeem more than the lending amount provided.\");\n        _redeemCEthFromCompound(_amount, false);\n        // Amount of Tokens given by Compound calculation\n        uint256 amountRedeemed = _amount * cEthToken.exchangeRateCurrent();\n        // The sender does not have any collateral anymore\n        lendingBalanceOf[msg.sender].total -= _amount;\n        // Finally leech transfers it to the user\n        payable(_lender).transfer(amountRedeemed);\n    }\n\n    function _supplyEthToCompound(uint256 _amount) internal {\n        cEthToken.mint{value: _amount}(); // Revert on error.\n    }\n\n    function _supplyDaiToCompound(uint256 _amount) internal {\n        // Approve transfer on the ERC20 contract.\n        daiToken.approve(CDAI_ADDRESS, _amount);\n        // Mint cTokens.\n        require(cDaiToken.mint(_amount) == 0, \"Call to Compound failed.\");\n    }\n\n    function _redeemCDaiFromCompound(uint256 _amount, bool _redeemType)\n        internal\n    {\n        uint256 result;\n        // TODO: check here this is false\n        if (_redeemType == true) {\n            // Retrieve your asset based on a cToken amount\n            result = cDaiToken.redeem(_amount);\n        } else {\n            // Retrieve your asset based on an amount of the asset\n            result = cDaiToken.redeemUnderlying(_amount);\n        }\n        require(result == 0, \"Call to Compound failed.\");\n    }\n\n    function _redeemCEthFromCompound(uint256 _amount, bool _redeemType)\n        internal\n        returns (bool)\n    {\n        uint256 result;\n        if (_redeemType == true) {\n            // Retrieve your asset based on a cToken amount\n            result = cEthToken.redeem(_amount);\n        } else {\n            // Retrieve your asset based on an amount of the asset\n            result = cEthToken.redeemUnderlying(_amount);\n        }\n        require(result == 0, \"Call to Compound failed.\");\n    }\n\n    function _findUnusedCTokensAndUse(uint256 _amount) internal {\n        uint256 remainingLiquidityToUse = _amount;\n        uint256 i;\n        while (remainingLiquidityToUse > 0 && i < currentLenders.length) {\n            address lenderAddress = currentLenders[i];\n            // We calculate how much is unused=usable for this lender\n            uint256 usable = lendingBalanceOf[lenderAddress].total -\n                lendingBalanceOf[lenderAddress].used;\n\n            if (usable > 0) {\n                uint256 amountToUse = min(usable, remainingLiquidityToUse);\n                lendingBalanceOf[lenderAddress].used += amountToUse;\n                remainingLiquidityToUse -= amountToUse;\n            }\n            i += 1;\n        }\n        require(remainingLiquidityToUse == 0, \"Not enough liquidity to use.\");\n    }\n\n    function _findUsedCTokensAndUnuse(uint256 _amount) internal {\n        uint256 remainingLiquidityToUnuse = _amount;\n        uint256 i = currentLenders.length;\n        while (remainingLiquidityToUnuse > 0 && i < currentLenders.length) {\n            address lenderAddress = currentLenders[i];\n            // We calculate how much is used=unusable for this lender\n            uint256 unusable = lendingBalanceOf[lenderAddress].used;\n\n            if (unusable > 0) {\n                uint256 amountToUnuse = min(\n                    unusable,\n                    remainingLiquidityToUnuse\n                );\n                lendingBalanceOf[lenderAddress].used -= amountToUnuse;\n                remainingLiquidityToUnuse -= amountToUnuse;\n            }\n            i += 1;\n        }\n        require(remainingLiquidityToUnuse == 0, \"Not enough liquidity to unuse.\");\n    }\n\n    function min(uint256 a, uint256 b) internal pure returns (uint256) {\n        return a < b ? a : b;\n    }\n}\n",
  "sourcePath": "/Users/paulframbot/leech-code/leech-contracts/contracts/CompoundModule.sol",
  "compiler": {
    "name": "solc",
    "version": "0.6.6+commit.6c089d02.Linux.g++"
  },
  "schemaVersion": "3.3.4",
  "updatedAt": "2021-06-29T19:26:58.141Z",
  "networkType": "ethereum",
  "devdoc": {
    "methods": {}
  },
  "userdoc": {
    "methods": {}
  }
}